:2000000000802020458E0000F75C0000F75C000000000000000000000000000000000000A7
:20002000000000000000000000000000F75C00000000000000000000F75C0000F75C0000C7
:20004000F75C00008D7C0000F75C0000F75C0000F75C0000F75C0000F75C0000F75C000052
:2000600000000000F75C0000F75C00000000000000000000F75C0000F75C00009171000032
:20008000E5780000F75C0000F75C0000F75C0000F75C0000F75C0000000000000000000064
:2000A000F75C0000F75C00000000000000000000F75C000000000000F75C0000F75C0000A1
:2000C000F0B593B00126B503FD4C2561782005F05BF82560F00320613107FA4A116013466B
:2000E000103B1196F6071E60196011601660196011601E60196011601660196011601E6003
:20010000196011601E60196011601E6019601160166019602060206111601E60196011605C
:200120001E60196011601660196011601E60196011601660196011601E6019601160166051
:20014000196011601E6019602060206111601660196011601E601960116016601960116024
:200160001E6019601160166019601160166019601160166019601160166019602060206107
:2001800011601E60196011601660196011601E60196011601660196011601E6019601160F6
:2001A0001660196011601660196011601660196020602061116016601960116016601960CF
:2001C00011601E60196011601E60196011601E60196011601E60196011601E6019601160A6
:2001E0001E6019602060206111601E60196011601E60196011601660196011601E6019606F
:2002000011601660196011601660196011601E60196011601E601960206020611160166066
:20022000196011601660196011601660196011601660196011601660196011601660196065
:200240001160166019601160166019602060206111601660196011601E601960116016602E
:20026000196011601660196011601660196011601660196011601660196011601660196025
:200280002060206111601E60196011601660196011601660196011601660196011601E60E6
:2002A000196011601E60196011601660196011601E601960206020611160166019601160C3
:2002C0001660196011601660196011601E60196011601660196011601E60196011601660B8
:2002E00019601160166019602060206111601660196011601660196011601E60196011608B
:2003000016601960116016601960116016601960116016601960116016601960206020616D
:2003200011601660196011601660196011601660196011601660196011601660196011606C
:200340001660196011601E6019601160166019602060206111601E6019601160166019601D
:2003600011601E601960116016601960116016601960116016601960116016601960116024
:200380001E6019602060206111601E60196011601E601960116016601960116016601960D5
:2003A0001160166019601160166019601160166019601160166019602060206111601E60CD
:2003C000196011601E60196011601660196011601E60196011601E601960116016601960AC
:2003E00011601E60196011601660196020602061116016601960116016601960116016608D
:20040000196011601E60196011601660196011601660196011601E60196011601660196073
:200420002060206111601E601960116016601960116016601960116016601960116016604C
:20044000196011601660196011601660196011601E6019602060206111601E601960116021
:200460001E60196011601E60196011601660196011601E60196011601E60196011601E60FE
:20048000196011601E6019602060206111601E60196011601E6019601160166019601160D9
:2004A0001E60196011601E60196011601660196011601660196011601E60196004E0C046CB
:2004C00090320A40A0120A402060206111601E60196011601E60196011601E60196011606A
:2004E0001E60196011601660196011601660196011601660196011601E601960206020617C
:2005000011601E60196011601E60196011601660196011601E60196011601E60196011606A
:200520001660196011601E60196011601E601960206020611160166019601160166019603B
:2005400011601E60196011601E60196011601660196011601660196011601660196011603A
:20056000166019602060206111601E60196011601660196011601E601960116016601960FB
:2005800011601660196011601E6019601160166019601160166019602060206111601E60E3
:2005A000196011601660196011601E60196011601660196011601660196011601E601960D2
:2005C00011601E6019601160166019602060206111601E60196011601660196011601E609B
:2005E000196011601660196011601E60196011601E60196011601E60196011601E60196082
:200600002060024C80200A9002E0C04600002020109011984002129020180F900320C001C2
:200620000D9021180E912046E0300C902046C0300B902346A0332646803625466035274677
:20064000403720462030002121702172217421762022A154017201740176402021543972E6
:2006600039743976602021542972297429760A982154317231743176A020215419721974FF
:200680001976C02021540B98017201740176E02021540C98017201740176119800022154DC
:2006A0002126F00021541120000121542325E80021540920400121542523D800215413209B
:2006C000000121542722D00021540520800121542920C00021541520000121542B20C000C7
:2006E00021540B20400121542D20C00021541720000121542F20C00021540D9821540E9831
:200700000172017401760D20400121543520C00021541B20000121543720C00021540720A9
:20072000800121543920C00021541D20000121543B20C00021540F20400121543D20C000F0
:2007400021541F20000121543F20C0002154109840380F9C00D05BE7069508930992024CDF
:2007600080200A9602E0C046000020201190FF27384682300D9022180E922046E1300C9090
:200780002046C1300F902046A1300B9026468136224661322346413320462130617061723B
:2007A000617461760A9D61550172017401764120109021541972197419766123E154117278
:2007C000117411768122A154317231743176A126A1550B98017201740176C12561550F9884
:2007E000017201740176E1200F9021540C9801720174017638460230215438460A30215430
:2008000038461230215438461A30215438462230215438462A302154384632302154384601
:200820003A30215438464230215438464A30215438465230215438465A3021543846623005
:20084000215438466A30215438467230215438467A3021540D9821540E9801720174017645
:200860003846A23021543846AA3021543846B23021543846BA3021543846C23021543846D1
:20088000CA3021543846D23021543846DA3021543846E23021543846EA3021543846F23045
:2008A00021543846FA302154129824181198403800D05BE7079311970495024D802003922E
:2008C000059601E0000020200E90049840000C902A180D922846E2300B902846C2300A9050
:2008E0002A46A2322E4682362C4662342B46423328462230A970A972A974A9762227E955E3
:20090000017201740176422029541972197419766220295421722174217682202954317272
:2009200031743176059EA2202954117211741176C22029540A98017201740176E22029541B
:200940000B980172017401760398400029548522500029548920400029548D2040002954F9
:200960009120400029549520400029549920400029549D204000295470002954A52358009A
:200980002954A92040002954AD2040002954B12040002954B52040002954B9204000295414
:2009A000BD20400029540C9829540D98017201740176D12040002954D52040002954D9201F
:2009C00040002954DD20400029540F9840002954E52460002954E92040002954ED20400043
:2009E0002954F12040002954F52040002954F92040002954FD204000295412982D180E9895
:200A0000403800D060E700940193029201488022119B01E0000020200E9284330C93C21803
:200A20000D920246E3320B920246C3320A920546A335064683360446633403464333024634
:200A40002332C170C172C174C176069FC15511721174117643220F928154197219741976A5
:200A600063228154217221742176119B83240155317231743176A32681552972297429764F
:200A8000C32541550A9A117211741176E327C1550B9A1172117411761A46043281541A4686
:200AA0000C3281541A46143281541A461C3281541A46243281541A462C3281541A46343241
:200AC00081541A463C3281541A46443281541A464C3281541A46543281541A465C328154C2
:200AE0001A46643281541A466C3281541A46743281541A467C3281540C9A81540D9A1172F5
:200B0000117411761A46A43281541A46AC3281541A46B43281541A46BC3281541A46C43217
:200B200081541A46CC3281541A46D43281541A46DC3281541A46E43281541A46EC32815491
:200B40001A46F43281541A46FC328154129A80180E9A403A00D05FE70397049505960694F3
:200B6000014E802002E0C046000020200E90079880000C9032180D923046E4300B90304681
:200B8000C4300A903746A437344684343246643233464433304624303171317331753177E1
:200BA0002425715501720174017644203154197219741976642031541172117411768420FB
:200BC0003154217221742176A4203154397239743976C42031540A98017201740176E42013
:200BE00031540B980172017401761098800031540F98800031544523980031544722900097
:200C000031544920800031544B20800031544D20800031544F208000315451208000315415
:200C20005320800031545520800031545720800031545920800031545B20800031545D20CB
:200C4000800031545F20800031540C9831540D980172017401766920800031546B20800045
:200C600031546D20800031546F208000315471208000315473208000315475208000315401
:200C80007720800031547920800031547B20800031547D20800031547F208000315412988A
:200CA00036180E98403800D060E70792F64A80200B93119B089F109086330E93D0180F90C6
:200CC0001046E5300D901046C5300C901646A536154685351446653413464533104625306A
:200CE0005171517351755177D1550172017401760B9811541972197419766520115421722F
:200D000021742176119B0298115429722974297601981154317231743176C52011540C984A
:200D2000017201740176009811540D9801720174017618460630115418460E3011541846FB
:200D40001630115418461E30115418462630115418462E30115418463630115418463E30A8
:200D6000115418464630115418464E30115418465630115418465E301154184666301154A1
:200D800018466E30115418467630115418467E3011540E9811540F980172017401761846A9
:200DA000A63011541846AE3011541846B63011541846BE3011541846C63011541846CE30E8
:200DC00011541846D63011541846DE3011541846E63011541846EE3011541846F630115471
:200DE0001846FE301154129812181098403800D061E7A54D80201090049840000E902A1808
:200E00000F922846E6300D902846C6300C902E46A6362F4686372C4666342B46463328462A
:200E20002630A971A973A975A9772622A95401720174017646202954197219741976662034
:200E40002954217221742176119A86202954397239743976A6202954317231743176C62069
:200E600029540C98017201740176E62029540D98017201740176069840002954872358000E
:200E800029548B20400029548F20400029549320400029549720400029549B2040002954A5
:200EA0009F2040002954059840002954A72460002954AB2040002954AF2040002954B320CD
:200EC00040002954B72040002954BB2040002954BF20400029540E9829540F9801720174DB
:200EE0000176D32040002954D72040002954DB2040002954DF20400029540398400029544B
:200F0000E72670002954EB2040002954EF2040002954F32040002954F72040002954FB2084
:200F2000400029545000295412982D181098403800D060E7544D8020089302940196109058
:200F4000104688300E902B180F9310320C92A8180D902846E7300B902846C7300A902F462F
:200F6000A7372C4687342B4667332A46473228462730E971E973E975E977099EA955017221
:200F8000017401760798295411721174117667202954197219741976089BE9542172217407
:200FA0002176029C119A2955397239743976C72029540A98017201740176019EA9550B9827
:200FC0000172017401761046083029540C9829540D98017210462030295410462830295420
:200FE00010463030295410463830295410464030295410464830295410465030295410464C
:20100000583029541046603029541046683029541046703029541046783029541046803009
:2010200029540E9829540F980172017401761046A83029541046B03029541046B8302954F1
:201040001046C03029541046C83029541046D03029541046D83029541046E030295410461B
:20106000E83029541046F03029541046F83029540648295412982D181098403800D05EE7FE
:2010800003F07CFE13B0F0BD00002020FF010000F0B595B0054601921078002809D115B01C
:2010A000F0BD08350198411C4078002801910C99F5D0EAB27A2A00D900257A2A00D9103178
:2010C000CAB23B2A01D200F044FD80200C90014A02E0C04600002020139001200F904002D7
:2010E0001490101812900320C0011090111811911046E0300E901046C0300D901446A0341E
:2011000017468037164660361146403110462030002515701572157415762023D554057233
:2011200005740576402015540D720D740D76602015543572357435760C9815543D723D741E
:201140003D76A0201554257225742576C02015540D98057205740576E02015540E98057209
:20116000057405760F98000215542126F00015541120000115542324E00015540920400134
:2011800015542523D80015541320000115542721C80015540520800115542920C0001554C6
:2011A0001520000115542B20C00015540B20400115542D20C00015541720000115542F20E1
:2011C000C00015541098155411980572057405760D20400115543520C00015541B20000130
:2011E00015543720C00015540720800115543920C00015541D20000115543B20C000155448
:201200000F20400115543D20C00015541F20000115543F20C000155413984038129A00D09F
:201220005AE7079409930A918020014F089601E0000020201090FF20139082300E903918E9
:201240000F913846E1300D903846C1300C903E46A1363C468134394661313A4641323846A3
:2012600021307D707D727D747D76089BFD54057205740576412012903D54157215741576CF
:201280006122BD540D720D740D761399812011903D54257225742576A1243D553572357446
:2012A0003576C126BD550C98057205740576E123FD540D98057205740576084602303D5405
:2012C00008460A303D54084612303D5408461A303D54084622303D5408462A303D540846F3
:2012E00032303D5408463A303D54084642303D5408464A303D54084652303D5408465A30CF
:201300003D54084662303D5408466A303D54084672303D5408467A303D540E983D540F986A
:201320000572057405760846A2303D540846AA303D540846B2303D540846BA303D54084600
:20134000C2303D540846CA303D540846D2303D540846DA303D540846E2303D540846EA300E
:201360003D540846F2303D540846FA303D5414983F181098403800D05CE7089280200693C9
:20138000014B05940B9601E000002020109070000E9019180F911846E2300D901846C230CA
:2013A0000C901F46A2371C468234194662311A464232184622309D709D729D749D7622263D
:2013C0009D550B9E05720574057642201D5415721574157662201D540D720D740D76822081
:2013E0001D54257225742576A2201D543D723D743D76C2201D540C98057205740576E22007
:201400001D540D98057205740576119840001D54852148001D54892040001D548D2040004B
:201420001D54912040001D54952040001D54992040001D549D2040001D54059840001D544D
:20144000A52250001D54A92040001D54AD2040001D54B12040001D54B52040001D54B9202B
:2014600040001D54BD2040001D540E981D540F98057205740576D12040001D54D52040002D
:201480001D54D92040001D54DD2040001D54069840001D54E52460001D54E92040001D54A0
:2014A000ED2040001D54F12040001D54F52040001D54F92040001D54FD2040001D541498A2
:2014C0001B181098403800D060E702940392049180200149139F01E0000020201090384607
:2014E00084300E900A180F920846E3300D900846C3300C900846A3300B900C4683340B46E6
:2015000063330A46433208462330CD70CD72CD74CD76079E8D5505720574057643201190D9
:201520000D5415721574157663200D541D721D741D7683228D54257225742576A323CD54E0
:201540000B98057205740576C3240D550C98057205740576E3268D550D980572057405762A
:20156000384604300D5438460C300D54384614300D5438461C300D54384624300D5438463E
:201580002C300D54384634300D5438463C300D54384644300D5438464C300D543846543050
:2015A0000D5438465C300D54384664300D5438466C300D54384674300D5438467C300D5463
:2015C0000E980D540F980572057405763846A4300D543846AC300D543846B4300D54384643
:2015E000BC300D543846C4300D543846CC300D543846D4300D543846DC300D543846E43090
:201600000D543846EC300D543846F4300D543846FC300D54149809181098403800D05DE75F
:201620000596069407930B928020014902E0C046000020201090089880000E900A180F920B
:201640000846E4300D900846C4300C900C46A4340E4684360B4664330A4644320846243025
:201660000D710D730D750D772427CD5505720574057644200D5415721574157664200D5449
:201680001D721D741D7684200D54357235743576A4200D54257225742576C4200D540C98BE
:2016A000057205740576E4200D540D98057205740576129880000D54119880000D544523CD
:2016C00098000D54472290000D54492080000D544B2080000D544D2080000D544F208000E4
:2016E0000D54512080000D54532080000D54552080000D54572080000D54592080000D54DB
:201700005B2080000D545D2080000D545F2080000D540E980D540F9805720574057669200D
:2017200080000D546B2080000D546D2080000D546F2080000D54712080000D5473208000F9
:201740000D54752080000D54772080000D54792080000D547B2080000D547D2080000D54C6
:201760007F2080000D54149809181098403800D060E7089280200D93FC4B139912908631BF
:201780001091581811901846E5300F901846C5300E901E46A5361C468534194665311A46E5
:2017A0004532184625305D715D735D755D77099FDD550572057405760D981D541572157450
:2017C000157665201D540D720D740D76139904981D5425722574257603981D543572357425
:2017E0003576C5201D540E9805720574057602981D540F98057205740576084606301D54C5
:2018000008460E301D54084616301D5408461E301D54084626301D5408462E301D54084639
:2018200036301D5408463E301D54084646301D5408464E301D54084656301D5408465E3011
:201840001D54084666301D5408466E301D54084676301D5408467E301D5410981D541198D1
:201860000572057405760846A6301D540846AE301D540846B6301D540846BE301D5408462B
:20188000C6301D540846CE301D540846D6301D540846DE301D540846E6301D540846EE3051
:2018A0001D540846F6301D540846FE301D5414981B181298403800D060E78020AB4E129092
:2018C000069840001090311811913046E6300F903046C6300E903146A63137468637344668
:2018E00066343246463230462630B571B573B575B5772623F5540572057405764620355402
:2019000015721574157666203554257225742576862035543D723D743D76A62035540D7242
:201920000D740D761399C62035540E98057205740576E62035540F980572057405760B9833
:20194000400035548722500035548B20400035548F204000355493204000355497204000DD
:2019600035549B20400035549F2040003554079840003554A72358003554AB20400035542B
:20198000AF2040003554B32040003554B72040003554BB2040003554BF204000355410987F
:2019A00035541198057205740576D32040003554D72040003554DB2040003554DF2040000B
:2019C0003554059840003554E72460003554EB2040003554EF2040003554F320400035549C
:2019E000F72040003554FB204000355448003554149836181298403800D060E78027D54E55
:201A000009920493039412970846883010903218119210310E9170180F903046E7300D9090
:201A20003046C7300C903746A73733468733324667323146473130462730F571F573F5750A
:201A4000F5770A9C3555057205740576089835540D720D740D761399672035541572157407
:201A60001576099AB5541D721D741D76049BF5543D723D743D76129FC72035540C98057245
:201A800005740576039C35550D980572057405760846083035540E9835540F98057208466F
:201AA00020303554084628303554084630303554084638303554084640303554084648309B
:201AC00035540846503035540846583035540846603035540846683035540846703035547A
:201AE0000846783035540846803035541098355411980572057405760846A830355408469E
:201B0000B03035540846B83035540846C03035540846C83035540846D03035540846D830DA
:201B200035540846E03035540846E83035540846F03035540846F83035548748355414984C
:201B40003618403F00D05EE703F018F90198007829462038C0B20D90C8B2149000200F90DB
:201B6000024610950C910F460CE0C046000020201098401C10900C9F0E9A521C0C2A01D1E7
:201B8000FFF78FFA0C200D994843744908180E92805C1099C9B212910F9A1192109949B259
:201BA000012213910029164600D40F9EF9B23F2900D80F9A43B21643002B0FD4002E1DD14C
:201BC000C9080722511ABA4301239340C9B2129AD200604CA218545C9C430EE0002E0DD1C4
:201BE000C9080722511ABA4301239340C9B2129AD200584CA218545C1C4354547E1CF1B241
:201C0000149A8A1A0C2AB3D001230024139A002A1A4600D422463F2900D823461A434306AF
:201C20000FD4002A1DD1C9080722511AB24301239340C9B2129AD200464CA218545C9C4384
:201C40000EE0002A0DD1C9080722511AB24301239340C9B2129AD2003E4CA218545C1C43F1
:201C60005454BE1CF1B2149A8A1A0C2A00D17FE701230024139A002A1A4600D422463F295D
:201C800000D823461A4383060FD4002A1DD1C9080722511AB24301239340C9B2129AD200D8
:201CA0002C4CA218545C9C430EE0002A0DD1C9080722511AB24301239340C9B2129AD20023
:201CC000244CA218545C1C435454FE1CF1B2149A8A1A0C2A00D14BE701230024139A002ABC
:201CE0001A4600D422463F2900D823461A43C3060FD4002A1DD1C9080722511AB243012300
:201D00009340C9B2129AD200124CA218545C9C430EE0002A0DD1C9080722511AB2430123DC
:201D20009340C9B2129AD2000A4CA218545C1C4354543F1DF9B2149A891A0C29119A00D107
:201D400016E7032111430001121D072900D224E712E7C04600002020FF01000036A00000BC
:201D6000F0B593B0014C80200A9001E000002020119001200D904002129020181090032095
:201D8000C0010E9021180F912046E0300C902046C0300B902546A0352746803726466036A2
:201DA0002246403220462030002121702172217421762023E1540172017401764020215476
:201DC000117211741176602021543172317431760A982154397239743976A02021542972A2
:201DE00029742976C02021540B98017201740176E02021540C980172017401760D98000231
:201E000021542126F00021541120000121542325E80021540920400121542523D8002154E1
:201E20001320000121542722D00021540520800121542920C00021541520000121542B20DC
:201E4000C00021540B20400121542D20C00021541720000121542F20C00021540E9821549E
:201E60000F980172017401760D20400121543520C00021541B20000121543720C0002154B2
:201E80000720800121543920C00021541D20000121543B20C00021540F20400121543D2012
:201EA000C00021541F20000121543F20C000215411984038109C00D05AE7069508930992F5
:201EC000014C80200A9601E0000020201190FF27384682300D9022180E922046E1300C90D3
:201EE0002046C1300F902046A1300B902646813622466132234641332046213061706172C4
:201F0000617461760A9D61550172017401764120109021541972197419766123E154117200
:201F2000117411768122A154317231743176A126A1550B98017201740176C12561550F980C
:201F4000017201740176E1200F9021540C9801720174017638460230215438460A302154B8
:201F600038461230215438461A30215438462230215438462A30215438463230215438468A
:201F80003A30215438464230215438464A30215438465230215438465A302154384662308E
:201FA000215438466A30215438467230215438467A3021540D9821540E98017201740176CE
:201FC0003846A23021543846AA3021543846B23021543846BA3021543846C230215438465A
:201FE000CA3021543846D23021543846DA3021543846E23021543846EA3021543846F230CE
:2020000021543846FA302154129824181198403800D05BE7079311970495024D80200392B6
:20202000059601E0000020200E90049840000C902A180D922846E2300B902846C2300A90D8
:202040002A46A2322E4682362C4662342B46423328462230A970A972A974A9762227E9556B
:202060000172017401764220295419721974197662202954217221742176822029543172FB
:2020800031743176059EA2202954117211741176C22029540A98017201740176E2202954A4
:2020A0000B980172017401760398400029548522500029548920400029548D204000295482
:2020C0009120400029549520400029549920400029549D204000295470002954A523580023
:2020E0002954A92040002954AD2040002954B12040002954B52040002954B920400029549D
:20210000BD20400029540C9829540D98017201740176D12040002954D52040002954D920A7
:2021200040002954DD20400029540F9840002954E52460002954E92040002954ED204000CB
:202140002954F12040002954F52040002954F92040002954FD204000295412982D180E981D
:20216000403800D060E700940193029201488022119B01E0000020200E9284330C93C2188C
:202180000D920246E3320B920246C3320A920546A3350646833604466334034643330246BD
:2021A0002332C170C172C174C176069FC15511721174117643220F9281541972197419762E
:2021C00063228154217221742176119B83240155317231743176A3268155297229742976D8
:2021E000C32541550A9A117211741176E327C1550B9A1172117411761A46043281541A460F
:202200000C3281541A46143281541A461C3281541A46243281541A462C3281541A463432C9
:2022200081541A463C3281541A46443281541A464C3281541A46543281541A465C3281544A
:202240001A46643281541A466C3281541A46743281541A467C3281540C9A81540D9A11727D
:20226000117411761A46A43281541A46AC3281541A46B43281541A46BC3281541A46C432A0
:2022800081541A46CC3281541A46D43281541A46DC3281541A46E43281541A46EC3281541A
:2022A0001A46F43281541A46FC328154129A80180E9A403A00D05FE703970495059606947C
:2022C000014E802002E0C046000020200E90079880000C9032180D923046E4300B9030460A
:2022E000C4300A903746A4373446843432466432334644333046243031713173317531776A
:20230000242571550172017401764420315419721974197664203154117211741176842083
:202320003154217221742176A4203154397239743976C42031540A98017201740176E4209B
:2023400031540B980172017401761098800031540F9880003154452398003154472290001F
:2023600031544920800031544B20800031544D20800031544F20800031545120800031549E
:202380005320800031545520800031545720800031545920800031545B20800031545D2054
:2023A000800031545F20800031540C9831540D980172017401766920800031546B208000CE
:2023C00031546D20800031546F20800031547120800031547320800031547520800031548A
:2023E0007720800031547920800031547B20800031547D20800031547F2080003154129813
:2024000036180E98403800D060E70792F64A80200B93119B089F109086330E93D0180F904E
:202420001046E5300D901046C5300C901646A53615468535144665341346453310462530F2
:202440005171517351755177D1550172017401760B981154197219741976652011542172B7
:2024600021742176119B0298115429722974297601981154317231743176C52011540C98D3
:20248000017201740176009811540D9801720174017618460630115418460E301154184684
:2024A0001630115418461E30115418462630115418462E30115418463630115418463E3031
:2024C000115418464630115418464E30115418465630115418465E3011541846663011542A
:2024E00018466E30115418467630115418467E3011540E9811540F98017201740176184632
:20250000A63011541846AE3011541846B63011541846BE3011541846C63011541846CE3070
:2025200011541846D63011541846DE3011541846E63011541846EE3011541846F6301154F9
:202540001846FE301154129812181098403800D061E7A54D80201090049840000E902A1890
:202560000F922846E6300D902846C6300C902E46A6362F4686372C4666342B4646332846B3
:202580002630A971A973A975A9772622A954017201740176462029541972197419766620BD
:2025A0002954217221742176119A86202954397239743976A6202954317231743176C620F2
:2025C00029540C98017201740176E62029540D980172017401760698400029548723580097
:2025E00029548B20400029548F20400029549320400029549720400029549B20400029542E
:202600009F2040002954059840002954A72460002954AB2040002954AF2040002954B32055
:2026200040002954B72040002954BB2040002954BF20400029540E9829540F980172017463
:202640000176D32040002954D72040002954DB2040002954DF2040002954039840002954D3
:20266000E72670002954EB2040002954EF2040002954F32040002954F72040002954FB200D
:20268000400029545000295412982D181098403800D060E7544D80200893029401961090E1
:2026A000104688300E902B180F9310320C92A8180D902846E7300B902846C7300A902F46B8
:2026C000A7372C4687342B4667332A46473228462730E971E973E975E977099EA9550172AA
:2026E000017401760798295411721174117667202954197219741976089BE9542172217490
:202700002176029C119A2955397239743976C72029540A98017201740176019EA9550B98AF
:202720000172017401761046083029540C9829540D980172104620302954104628302954A8
:202740001046303029541046383029541046403029541046483029541046503029541046D4
:20276000583029541046603029541046683029541046703029541046783029541046803092
:2027800029540E9829540F980172017401761046A83029541046B03029541046B83029547A
:2027A0001046C03029541046C83029541046D03029541046D83029541046E03029541046A4
:2027C000E83029541046F03029541046F83029540648295412982D181098403800D05EE787
:2027E00002F0CCFA13B0F0BD00002020FF010000F0B5A1B019910746EF4E2420305C1890CF
:20280000002802D0002003F095FF307A00220328134602D84000E9490B5A707A03281146AA
:2028200008D88000F17C002901D0E54900E0E5490818016814931291F17A06291346144675
:202840001546109214D8481E424242417F2008400623C34001210B400E24C4400C401E25DD
:20286000C5400D4013973E27C7400F401097139F0B950C940E930F92F0891590B07A1690D8
:20288000307C17900025384619992A4600F0D4FE002808D0384619992A4600F0CDFE0028DB
:2028A0002C4600D066E31DA81AA901220D9200F0C3FE002808D01DA81AA9012200F0BCFE3D
:2028C00000282C4600D055E31397099570680078BD490C69C8210891009140000D2120AAF8
:2028E0000423A047002800D0FDE02098C0081C23184020ACE678B106890F0A186578EF086F
:202900001F403507AD0F029701957D190595A478E4081C400794032306931E400024002A97
:202920000A94039645D0571E14D00843801EC2B2AB2104925143490A069A5143401A401C62
:202940001190C0B2032801D100211191032803D19E4C1BE09D4C2CE000259C4C20469C4973
:2029600005F024FA044601202843C0B21199CEB2B0420AD02046964905F018FA0446BF1E93
:20298000AD1CE8B2B042E9D100E07F1E04980228039E0ED38E4D2046294605F007FA29464E
:2029A00005F004FA294605F001FA0446FF1E3806F1D1079880190490059800280A9D48D00E
:2029C000471E17D0029801990843801EC2B2AB2102925143490A069A5143401A401C119048
:2029E000C0B2032801D1002111910594032803D1764D1BE0754D2CE00026744D284674496F
:202A000005F0D4F9054601203043C0B21199CCB2A0420AD028466E4905F0C8F90546BF1EBC
:202A2000B61CF0B2A042E9D100E07F1E02980228059C0ED3664E2846314605F0B7F931460E
:202A400005F0B4F9314605F0B1F90546FF1E3806F1D10498002846D0471E17D003980799F5
:202A60000143881EC2B2AB210A925143490A069A4A43801A401C1190C0B2032801D1002155
:202A800011910594032803D1504817E04F4829E000264E484E4905F089F901213143C9B2F2
:202AA000119AD4B2A14208D0494905F07FF9BF1EB61CF1B2A142EDD100E07F1E0A990229ED
:202AC00002D20A90059C0EE0414E059C314605F06DF9314605F06AF9314605F067F9FF1E3F
:202AE0003906F3D10A90199800681A99401AC1174840401A05F0CAFE6F21C905119105F0A7
:202B000055F9074600262046314605F06DFC002810D13846214605F059FA2E4904F0D1FA4D
:202B20000124E10788432C4905F086FC00280ED026460CE02949384605F060FC0446284977
:202B4000384605F079FC06462643701E8641199840681B99401AC1174840401A05F096FED9
:202B6000119905F023F904460021284605F03CFC002810D12046294605F028FA154904F04D
:202B8000A0FA0121C9078843134905F055FC002828D0B71C27E0B71C1149204605F04CFC72
:202BA00000283D4600D135460C49204605F026FC002818D12F4616E02006202046A700007D
:202BC000CCA60000BCA60000700620207B14AE3E1D5A843F000080BF295C0F3E9A99993E9B
:202BE0003333733F3746F44E199880681C99401AC1174840401A05F049FE119905F0D6F8F3
:202C0000044600210A9D2846199105F0EDFB002811D12046294605F0D9F9FA4904F051FA85
:202C20000121C9078843F84905F006FC002814D0381D0A9012E03E1DF649204605F0FCFBC6
:202C400000280A9600D13E46F549204605F0D6FB002800D10A96D84E00E00A97139F706823
:202C60000078F0490C690899009140000D2120AA03252B46A047002801D0072573E120A803
:202C800004781F210C40047042780A40427082780A40827038681D99401AC1174840401A62
:202CA00005F0F4FD119905F081F82106089514D0661E310607901FD0A21ED3B2AB21069383
:202CC0005943490A6943511A491CCAB2032A00D01991032A12D1D4492CE0D449044605F0D1
:202CE0008DFB0746D249204605F0A6FB3843139F411E8841199045E0CB492EE00024CA496C
:202D0000CC4F0846394605F051F8014620460D9A1043C0B2199AD5B2A8420AD008463946A9
:202D200005F044F80146B61EA41CE0B2A842E8D100E0761E06980228139F0ED3BD4D08462B
:202D4000294605F033F8294605F030F8294605F02DF80146F61E3006F1D120A800221992E7
:202D60000270079805F032F9EB4904F0AAF90D9CE1078843E94905F05FFB0028E44E089D7B
:202D800000D0199478681E99401AC1174840401A05F07CFD119905F009F820A94A7811065B
:202DA000079013D0561E310621D0921ED3B2AB210D935943490A6943511A4C1CE1B203292F
:202DC00000D10024032914D1D5492BE019998C1CD64905F031FB00280D9400D1199CD249C0
:202DE000079805F00BFB002845D10D9443E0CC492BE00025CA490846CA4904F0D7FF01466D
:202E000001202843C0B2E7B2B8420AD00846C54904F0CCFF0146B61EAD1CE8B2B842EAD1F9
:202E200000E0761E0D980228089D0ED3BD4F0846394604F0BBFF394604F0B8FF394604F0A5
:202E4000B5FF0146F61E3006F1D120A800224270079805F0BBF8B04904F033F90121C9077D
:202E60008843AE4905F0E8FA0028199800D0801C0D90A74E139FB8681F99401AC11748409E
:202E8000401A05F003FD119904F090FF20A98A78110614D0561E3106199023D0921ED3B274
:202EA000AB2113935943490A4D43511B4F1CF9B2032900D10027032916D199492DE00D9FCD
:202EC0003D1D9A49044605F0B7FA0028284600D1384607469449204605F090FA002842D196
:202EE0003D4640E08E492AE000258D4908468D4904F05CFF014601202843C0B2FCB2A0420B
:202F00000AD00846874904F051FF0146B61EAD1CE8B2A042EAD100E0761E139802280ED330
:202F2000804C0846214604F041FF214604F03EFF214604F03BFF0146F61E3006F1D120A894
:202F400000228270199805F041F8734904F0B9F80121C9078843714905F06EFA00280D9D77
:202F600000D02D1D6A4E6C426C410A98002800D1A41C099D6E48F081FF203074E843B060FE
:202F8000012535736B48149A824208DCFA2A10D07D20800082422AD120A8082110E07D20FC
:202FA000C1008A420AD00001824220D120A8182106E020A8002103E02006202020A81021E2
:202FC000017003CE0A7881795248C668C8200090500020AA0123B0474D4E002803D120A85F
:202FE0000078C0083072B07A002800D17DE01298C0B2801EE841072840D804A1085C4000FC
:203000008744C046000080BF295C0F3E0A1F3C1A3C3C3C233333733F20A80025057018E006
:203020009A99993E700620200000C841000020410000D24254E3853F20A8102101700225C6
:2030400007E020A80821017003E020A8182101700325707AA84211D003CE0A78C1792D48F3
:20306000C568C8200090500020AA0123083EA847002803D120A80078C0087072B07A002800
:2030800033D00F98002802D020A9012019E00E98002802D020A9022013E00C98002802D08D
:2030A00020A903200DE00B98002802D020A9042007E01098002802D020A9052001E020A98C
:2030C00006200870F17A81420FD003CE0A7881781048C568C8200090500020AA0123083E78
:2030E000A847002801D12098F072159803F0A8FC169803F023FD179804F01CF91898002838
:2031000002D0012003F016FB204621B0F0BDC0462006202070062020000080BF295C0F3EA1
:203120000000C84154E3853F000020410000D242FFFF0000E7030000F0B591B0109103A9FB
:203140000DC1002B00D16EE2169F0598411E079179080291801E0190002106910F9707E084
:20316000002006900899491C0598814200D15AE2C8B20A460799C9B28142089201D10121F0
:2031800032E00198801AC1B2AB224A43520A03235343C01A401CC2B2032A00D10020022912
:2031A00001D201210EE00899C943059BC9180C1A00230121E4B27D25ED006943DB1CDDB23C
:2031C000A542F8D1032A0FD0002201231343DCB2C3B29C4206D064246143921CD4B29C42A2
:2031E000F3D101E00A204143049805F0D1FA0A2105F0CEFA0991069800280CD107980899BB
:20320000884205DD0998002800D10CE101200690002F03D1A7E70899002FA4D00846029906
:203220004843039940180C9010200999014309910022109B07E00C98401C0C90109B0A9A24
:20324000521CBA428ED00C2F0A9203D009980001F74903E00C2009994843F44908188018E9
:2032600004780C98C0B20E9000200B9001460D910C9840B2012700283E4600D40B9ED9B20C
:203280003F2900D80B9F62B23E43002A10D4002E0F9F1ED1C9080722511A9A430125954099
:2032A000C9B20E9AD200E34EB218565CAE430FE0002E0F9F0DD1C9080722511A9A4301256A
:2032C0009540C9B20E9AD200DA4EB218565C2E435654591CCEB2109AB21ABA42ABD001255D
:2032E000002200282F4600D417463F2E00D815462F4362060FD4002F1DD1F2080725AA1A7A
:203300008D430121A940D2B20E9DED00C94E7519AE5C8E430EE0002F0DD1F2080725AA1A51
:203320008D430121A940D2B20E9DED00C14E7519AE5C0E43AE54991CCEB2109AB21A0F9F43
:20334000BA4200D177E70125002200282F4600D417463F2E00D815462F43A2060FD4002F60
:203360001DD1F2080725AA1A8D430121A940D2B20E9DED00AF4E7519AE5C8E430EE0002FFB
:203380000DD1F2080725AA1A8D430121A940D2B20E9DED00A74E7519AE5C0E43AE54D91C99
:2033A000CEB2109AB21A0F9FBA4200D143E7012500220028284600D410463F2E00D81546CA
:2033C0002843E2060FD400281DD1F0080722101A8A4301219140C0B20E9AD200954DAA1806
:2033E000155C8D430EE000280DD1F0080722101A8A4301219140C0B20E9AD2008D4DAA1805
:20340000155C0D4315541B1DD8B21099401AB8420D9900D10FE7032008432401091D07286E
:2034200000D224E70BE7002F00D1F9E0084602994843039940180C900021109A08E00C9889
:20344000401C0C90109A0A99491CB94200D187E60C2F764800D076480A91435C0C98C0B2B2
:203460000E9000200B9001460D910C9840B201240028264600D40B9ED1B23F2900D80B9CD8
:203480005DB22643002D0FD4002E1DD1C9080724611A94430125A540C9B20E9CE400654E73
:2034A0003419665CAE430EE0002E0DD1C9080724611A94430125A540C9B20E9CE4005D4E05
:2034C0003419665C2E436654511CCEB2109C341BBC42B4D00127002500283C4600D42C460B
:2034E0003F2E00D82F463C435D0610D4002C0F9F1ED1F40807252C1B8D430121A940E4B2A3
:203500000E9DED004B4E75192E5D8E430FE0002C0F9F0DD1F40807252C1B8D430121A9409F
:20352000E4B20E9DED00434E75192E5D0E432E55911CCEB2109C341BBC4200D17FE701275A
:20354000002500283C4600D42C463F2E00D82F463C439D0610D4002C0F9F1ED1F4080725A5
:203560002C1B8D430121A940E4B20E9DED00314E75192E5D8E430FE0002C0F9F0DD1F408EF
:2035800007252C1B8D430121A940E4B20E9DED00284E75192E5D0E432E55D11CCEB2109C33
:2035A000341BBC4200D14AE7012400250028204600D428463F2E00D82C462043DC060FD4C3
:2035C00000281DD1F0080724201A8C430121A140C0B20E9CE400174D2C19255C8D430EE0BE
:2035E00000280DD1F0080724201A8C430121A140C0B20E9CE4000F4D2C19255C0D432554AB
:20360000121DD0B21099401AB8420D9900D116E7032008431B01091D072800D224E712E7D3
:20362000002006909FE511B0F0BDC04636A00000469A000000002020F0B58BB005920C461D
:2036400007460026F043079008AA012010705670DD4903C90B78817CDC48C568C8200690D3
:20366000009058000223A847002800D0FAE00494D64D6969069C2046884708AA1670D249C5
:2036800003C90B78C17BED68009458000123A847002800D0E6E00396CB4903C90A784179D8
:2036A000CA4EF56806980090500008AA0123A847002800D0D6E0C44903C90A78817CF568EF
:2036C00006980090500008AA0123A847002800D0C8E0BD4903C90A78C17DF56806980090EA
:2036E000500008AA0123A847002800D0BAE0B64903C90A780179F56806980090500008AACF
:203700000123A847002800D0ACE008AA0C201070AD4903C90B780179F56806980090580012
:203720000123A847002800D09CE071690F208847A549886A407A08AA107003C90B78817816
:20374000F5680698009058000123A847002800D088E09D49886A007A08AA107003C90B7840
:203760004178F5680698009058000123A847002878D1954EB06A807A0599002901D0E02199
:20378000084308AA107003CE0B7881798F48C5680698009058000123A847002862D10598C9
:2037A000002806D08848806AC17A1F20C043084300E0182008AA1070834903C90B78C179EA
:2037C0008248C5680698009058000123A847002848D10598002803D07C484169C82088475B
:2037E00008AA40201070784903C90B7801797748C5680698009058000123A847002831D1FE
:2038000008AA78201070704903C90B7841796F48C5680698009058000123A847002821D185
:203820006A4D69693220884708AA03981070664903C90B784179ED6806980090580001235A
:203840000293A84700280DD15F4903C90A78817A5E48056906980090500008AA0223A84795
:20386000002802D007980BB0F0BD08A8008840BA57494143C80C3946039A3A607A60BA6073
:2038800004990A604A608A60C0B20590002838D04D4903C90A78C17A4C4805690698009007
:2038A000500008AA0C23A8470028DBD1089908AB5A88099CC9BA0498056869180160D1BA40
:2038C000426851184160E1BA826851188160D9880A9A5B89C8BA3D46396808183860D1BA93
:2038E0007A6851180C467960D9BABA6851180E46B9600399491C0391C9B2059A9142C7D3AB
:2039000002E0394651CF0C3FC117020C0904891800048322079200252B4605F0F7F9059AEB
:203920002B4605F0F3F901973860E017210C000441182004079F3A462B4605F0E7F9059C53
:2039400022462B4605F0E2F901994860F017310C0004411830043A462E462B4605F0D6F97E
:2039600022462B4605F0D2F901998860049D2868C117C20E4901891840012246334605F051
:20398000C5F928606868C117C20E4901891840012246334605F0BAF96860A868C117C20E34
:2039A00049018918400122463546334605F0AEF9002802DC0299090400E006490818049949
:2039C000886028460BB0F0BD2006202070062020ABAA00000000FFFFF0B589B00F4605463C
:2039E0000120C1073E468E43B14886420BD3D1483018284300D190E005F0FAF92121016052
:203A0000CD49002550E1AB48864212D8C64AC74B2846394602F0ABF80022A54B04F0DAFC15
:203A2000002800D186E0C248864200D382E039463AE10291089700249D4920462A463346FB
:203A400002F090F89C4B224603F0E4F905460F469A4A9B4B03F0DEF99A4A9B4B02F087F85E
:203A600005F099F9994A9A4B02F081F805F093F9984A994B02F07BF805F08DF9974A984BA1
:203A800002F075F805F087F9964A974B02F06FF805F081F906900791944A954B05F0C4F92A
:203AA000944A954B02F063F805F075F9934A944B02F05DF805F06FF9924A934B02F057F83D
:203AC00005F069F922467A4B02F051F8039004912846394602F08EFA05900C468B48864216
:203AE00000D283E005F06EF902460B46059D2846214603F08FF92A4605F0A2F902460B4611
:203B000002F035F8824A864B02F031F802460B468148844902F026F8C0E07D4A7D4B05F06B
:203B200083F904460E467C4A7E4B05F07DF92246334657E0284639462A463B4603F06AF925
:203B4000064608970F465D4A5D4B03F063F95D4A5D4B02F00CF805F030F95C4A5C4B02F0E5
:203B600006F805F02AF95B4A5B4B02F000F805F024F95A4A5A4B01F0FAFF05F01EF9594A06
:203B8000594B01F0F4FF05F018F904460791574A574B3046394603F03DF9564A564B01F022
:203BA000E6FF05F00AF9554A554B01F0E0FF05F004F9544A544B01F0DAFF05F0FEF8002213
:203BC0003B4B01F0D4FF02460B462046079902F02BFD02460B462846089C214603F01AF9CA
:203BE0002A46234601F0C3FF05465DE000263046214632460196234603F00CF902460B46A5
:203C00002846394601F0AEFF00900F46059D28462146324605F014F902460B460098394693
:203C200002F002FD06460F4605F0CCF807900691284621462A4605F003F905900491304635
:203C4000394632463B4601F092FF02460B463048304901F087FF05460F4605980499079AEE
:203C6000069B03F0D7F82A463B4601F07BFF05460F4601982146024605F0E2F802460B4635
:203C8000254C264E2046314601F06CFF2A463B4601F068FF2246334601F069FF0546089898
:203CA000002801DC02984140284609B0F0BDC0460000F03FFFFFDF3F0000E03F09F7FD0D96
:203CC000E13D023F88B20175E0EF493F3B8F68B52882A4BF5544880E55C1C93F7D6FEB0363
:203CE00012D6D4BF555555555555C53F82922EB1C5B8B33F59018D1B6C06E6BFC88A599C85
:203D0000E52A00404B2D8A1C273A03C03333EF3F075C143326A6913C182D4454FB21E93F1A
:203D200026A691BCFB21F93F9C7500883CE4377E0000503E000010C00000F87F84B004F0AB
:203D4000D9FEFCF7BDF9FEF70BF8A84A00200146FDF79EF901F012F8A5480068804702F0FE
:203D600001FA01F033FEA34803F016FDA2480168012421430160A148022101600160A04A40
:203D800011601160210401601160E00310609D4803F002FD039434E03046A14904F006F823
:203DA0003F21090603F08DF904F022FE06460A2104F0DAFB04460A253046294604F0D4FBA6
:203DC0000191029E009610203027042339462246FFF7B2F9039C00942E22384639463346EC
:203DE00002F04EF8009638203946019A2346FFF7A3F900F0C3FF322004F016FE284601F01D
:203E0000C3F9A102804804F0BBFF8048006800287F4A00D07F4A002528462946FDF738F9EC
:203E2000102128467C4AFDF733F97C48C4692046294604F0E3FA00280ED02046794903F045
:203E4000B5FF3F21090603F03CF904F0D1FD05460920C14328460BE02046714903F0A6FFCC
:203E60003F21090603F02DF904F0C2FD05460A2104F07AFB06460A21284604F075FB0D468C
:203E80000C27009710240423204621463246FFF753F9039E009630202E2221463B4601F0C6
:203EA000EFFF02970097382021462A463346FFF743F90025202128465B4AFDF7E9F857481D
:203EC000846920460195294604F098FA00280ED02046544903F06AFF3F21090603F0F1F854
:203EE00004F086FD06460920C14330460BE020464B4903F05BFF3F21090603F0E2F804F0FA
:203F000077FD06460A2104F02FFB04460A21304604F02AFB0E46029D00951020202704236E
:203F200039462246FFF708F9039C009430202E2239462B4601F0A4FF009538203946274673
:203F400032462346FFF7F8F8384908780028384802D0019A02700A70007830490C6A002809
:203F600009D10021204604F03FFA002803D1314804602F4807702F480168204603F09CF81F
:203F800004460025294604F039FA074620462A4903F097F80646002F00D1264630462649D7
:203FA00004F040FA04463046244903F08AF8002C00D0064630212846214AFDF769F83046F4
:203FC000294604F01BFA002800D1E5E63046154903F0ECFE3F21090603F073F804F008FD2E
:203FE00006460920C1433046E2E6C04696A700007006202075A700000438864080E200E0B1
:2040000000E100E086A700000000202088062020C4A70000C9A70000DDA700004C062020B3
:2040200000002041000020C1DAA70000C6062020C3062020B80620200000B4430000B4C33C
:20404000D7A70000F0B587B005460F460122D0070E468643924886420DD3B448864203D82E
:20406000002D3FD086423DD1284639462A463B4601F07DFDE2E08B488642039112D8914A2F
:20408000914B2846394601F072FD00248B4B224604F0A0F9E1430291002869D0B00DF92812
:2040A00066D2CDE08048864220D8854886423FD8284631462A46334601F059FD00277C4BE4
:2040C0003A4601F054FD044628460D4601218B07314602973A4601F04AFD02460B46204698
:2040E000294636E0002920DC924F1FE06F48864234D800246F4B284604F08AFE2A46054628
:204100000F466D4B10463146224602F083FE6B4B224601F02CFD02460B462846394602F03A
:2041200083FA05460F46022021E0814F824D87E0029200245E4B284604F06AFE2A46054653
:204140000F465E4B104604F063FE02460B462846394602F069FA05460F4609E00020544995
:204160002A46334602F060FA05460F46032002900695284639462A463B4602F04BFE05906C
:20418000049102460B4602F045FE04460D464F4A4F4B02F03FFE4F4A4F4B01F0E8FC04F0C1
:2041A00007FE4E4A4E4B01F0E2FC04F001FE4D4A4D4B01F0DCFC04F0FBFD4C4A4C4B01F005
:2041C000D6FC04F0F5FD4B4A4B4B01F0D0FC02460B460598049902F01DFE04900591474AA4
:2041E000474B2046294602F015FE464A464B01F0BEFC04F0DDFD454A454B01F0B8FC04F001
:20420000D7FD444A444B01F0B2FC04F0D1FD434A434B01F0ACFC04F0CBFD224A964213D8AD
:20422000049A059B01F0A3FC02460B4604F0DCFD02460B462046394601F094FC05460F46AB
:204240002846394607B0F0BD029AD400354A1319125902925A680192049A059B01F087FCEC
:2042600002460B463048011906594D6804F0BCFD32462B4601F076FC22463B4601F072FCBE
:2042800002460B460298019901F06CFC05460F4603980028D4D50120C0074740D0E7C046C0
:2042A00000001044FFFFDB3FFFFFF23FFF7F03400000F0BF0000F8BF0000F83F0000F03FD6
:2042C000FFFFE53F9C7500883CE4377E11DA22E33AAD903FEB0D76244B7BA93F513DD0A06A
:2042E000660DB13F6E204CC5CD45B73FFF8300922449C23F0D5555555555D53F2F6C6A2C37
:2043000044B4A2BF9AFDDE522DDEADBF6D9A74AFF2B0B3BF711623FEC671BCBFC4EB98998E
:204320009999C9BFF8A4000018A500000000F07FFB21F93FFB21F9BF182D4454F0B58DB014
:20434000044607AF022001903870CA207870E320B8700920F870682004213A4603F0F4FD63
:20436000A32038704026254626405C21C9433F23002E0A4600D0DA4300930124002E0B460E
:2043800001D03723DB43029424020596002E0E4601D03D26F6437A70BB70FE7026468036E9
:2043A0002E400A4601D03B22D243002E0B4601D03323DB430696002E01D03921C94397267A
:2043C0003A717B71B971F871387278727D480F300A213A4603F0B8FD032027212840049061
:2043E000039101D0202000E0C843F600387075481E3002993A4603F0A7FD2F46A80606D4D5
:204400000AAAC720107272480B90724805E00AAA5D2010726C480B906C480A90092130469B
:2044200003F092FD069D002D21D03C4001D04D2000E04F20C043002C01D0742100E07F211B
:20444000C943002C01D0492200E04B22D343002C01D0642200E06F22D44307AA1070517088
:204460009370D47057480A30042103F06DFD8B200001F90704D107AAD821117001214AE0A2
:2044800007AAF82111700126314603F05DFD0720FA2101F013FF0AAA009810702920C500C7
:2044A0002846314603F050FD0AAA00241470E81D314603F049FD0AAA14701420507028462C
:2044C0009630019E314603F03FFD0AAA14706420507028469230314603F036FD0AAA147050
:2044E0008E205070F92090709020D07028461430042103F029FD0AAA1470082050702846C7
:204500001230314603F020FD0AAA1470567010352846069D314603F017FD059CB807039805
:2045200000D52620C04307AA10702B48012103F00BFD780704D429480A9004210AAA09E078
:204540000AAAC0201070C2205070C4209070C620D07004211B4803F0F7FC01F099F8F806AD
:2045600006D41F480A901748801D04210AAA0BE00AAA20201070282050703020907038207C
:20458000D0701048801D042103F0DEFC01F080F8082038431349088001F07AF8002C00D0A5
:2045A0000624002D00D0A41D1420074201D0102004430498002800D0241D0B480470002092
:2045C0000DB0F0BD980A0000B4980D35B8AAB38DB088C3C5B8AAAAAA3D0700008B8B8B8BB9
:2045E000A3A3A3A3C0062020C2062020F0B585B0A34EA44AA44F0120440604900105A34D80
:2046000010681F231B0698431060032042040020039104F01DFB99480760422730682042A0
:2046200000D083E0284604F0B1FB306820427DD1284604F0ABFB3068204277D1284604F045
:20464000A5FB3068204271D1284604F09FFB306820426BD1284604F099FB3068204265D126
:20466000284604F093FB306820425FD1284604F08DFB3068204259D1284604F087FB306896
:20468000204253D1284604F081FB306820424DD1284604F07BFB3068204247D1284604F052
:2046A00075FB3068204241D1284604F06FFB306820423BD1284604F069FB3068204235D1E6
:2046C000284604F063FB306820422FD1284604F05DFB3068204229D1284604F057FB306826
:2046E000204223D1284604F051FB306820421DD1284604F04BFB3068204217D1284604F0E2
:2047000045FB3068204211D1284604F03FFB306820420BD1284604F039FB3068204205D1A5
:20472000284604F033FB163F00D077E75548806902900498020400200190039904F088FAE9
:204740004E485149016042273068204200D083E0284604F01BFB306820427DD1284604F010
:2047600015FB3068204277D1284604F00FFB3068204271D1284604F009FB306820426BD1A3
:20478000284604F003FB3068204265D1284604F0FDFA306820425FD1284604F0F7FA30681B
:2047A000204259D1284604F0F1FA3068204253D1284604F0EBFA306820424DD1284604F041
:2047C000E5FA3068204247D1284604F0DFFA3068204241D1284604F0D9FA306820423BD166
:2047E000284604F0D3FA3068204235D1284604F0CDFA306820422FD1284604F0C7FA3068AC
:20480000204229D1284604F0C1FA3068204223D1284604F0BBFA306820421DD1284604F0D0
:20482000B5FA3068204217D1284604F0AFFA3068204211D1284604F0A9FA306820420BD125
:20484000284604F0A3FA3068204205D1284604F09DFA163F00D077E70A48816917350298EB
:204860004543284603F094FF094940180F2801D301980490049805B0F0BDC0462C030B405C
:2048800004020B4038010B400100000ED103000043F6FFFFF0B5FFB08CB00493154606465B
:2048A000909800908A913468204604F062FA2018002189910290844244D20022859285A88C
:2048C00003920273641C0F46601E0078002834D0252806D034602946049A90477F1C641C21
:2048E000F2E70398C04301908997601C03903060207885A90873732809D18AA989AA284667
:20490000049B00F021F88999039C019A11E005AC85A98AAA204600F035F8024620462946EF
:20492000009B9847411C019A114600D0C1198991039C481C0298BED100E03A4610467FB0D9
:204940000CB0F0BD0A46F9E7F8B504460868051D0D600668002E11D0009414461D46304684
:2049600004F007FA07462068C01920600024BC4207DA305D0099A847641CF8E70020214616
:204980009847F8BDF0B585B001920E4604467F208000251800270397FF210291FE31202237
:2049A000204604F0DFF904956F70307B252852D06B1C782813D0642811D06F280FD06328BB
:2049C00020D1019A1068011D11600168C8B247424741029A1046FC302018297014E01D460A
:2049E00003A904AA3046019B00F03BF803980499002803D0481E2D220A7000E00846029AFC
:204A00002B4601E02846029A191A0029254601DC611A4D1C411C530000262846324604F002
:204A2000E5F8002F02D0411C067000E00146A14206D8481E611A491C202204F093F926703F
:204A4000291B2022204604F08DF9204604F091F9C01905B0F0BD00206070252020700120EB
:204A6000F7E7F8B514460D460646077B194600F014F8317B642904D1002802D5012129601D
:204A800040426F2F01D00A2100E00821782F00D11021224600F012F8F8BD007B642805D055
:204AA0006F2803D0782801D0702804D10868021D0A600068704700207047C046F8B51446B2
:204AC0000D460646002804D12068411E2160302101700A4F002E0DD03046294600F010F8CF
:204AE00001466943711A795C2268531E236011700646EFE7206804F03CF9F8BD64A70000D1
:204B000080B5102903D0082903D1C00880BD000980BD03F03DFE80BDF0B58BB00027FC4353
:204B2000282800D923E100280AD0924B2326995D012902943CD0997C002918D0322217E0ED
:204B40008C4D2326A85D002800D1FDE0A87C411E02468A41510004AA11702221695C002911
:204B600000D1E1E0002800D1DAE07D20D9E03022019005A802702220185C002807D00029BA
:204B800001D04D2000E04F20C04305A9087003CB0A78017D7848C468C8200090500005AA2E
:204BA00001252B46A047734B0028019800D19D5503A920220A7001281DD103A80021417039
:204BC000987A002875D006A806210170D87A06286FD003CB0A7881786748C468C8200090B5
:204BE000500006AA083B1D460123A0472B4600285FD106985CE005281DD803A801214170C1
:204C0000987A002855D007A806210170D87A06284FD003CB0A7881785748C468C8200090C3
:204C2000500007AA083B1D460123A0472B4600283FD107983CE014281DD803A802214170AE
:204C4000987A002835D008A805210170D87A05282FD003CB0A7881784748C468C8200090D4
:204C6000500008AA083B1D460123A0472B4600281FD108981CE003A803214170987A0028A2
:204C800017D009A804210170D87A042811D003CB0A7881783848C468C8200090500009AA17
:204CA000083B1D460123A0472B46002801D10998D87203AA50788001C01D507003CB083B49
:204CC0001D460B78817C2C48C468C826009658000223A0470028029C49D10820A8722F73A5
:204CE00001232B752420285C00283C463FD100242C74687C00283AD10AAA137003CD27461F
:204D00000C78C17B1C48C0680290009660003C46029E083DB047002829D10A98687426E0BB
:204D20007F20C04304A9087003CD0A78017D1248C768C8200090500004AA0123083DB84775
:204D4000002801D10020A8550720000203AA108003CD0B78817C0848C668C8200090580038
:204D60000223083DB047002801D100242C7520460BB0F0BD2006202070062020F0B584B050
:204D80000121C8077C4C7D4E0B0700257C4A0192CA03039207E0009D6D1C0199491C0191FF
:204DA000082D00D1E6E0226133603246103A106013603360306013603360106013603360CD
:204DC000106013603360306013603360042D314600D31146086013603360A907314600D58B
:204DE00011460860136033600095E907314600D0114608601360039921602161336030602E
:204E0000136033603060136033603060136033603060136033603060136033603060136031
:204E20003360306013603360306013602160216133603060136033603060136033603060F4
:204E4000136033601060136033603060136033603060136033603060136033603060136011
:204E60000A4621608027019D07E008601360424C039A22601035BF1E8DD0029700216956B5
:204E8000226033603246103A0029344600DA14462060136033604C06344600D51446206063
:204EA000136033608C06344600D51446206013603360CC06344600D514462060136033602A
:204EC0000C07344600D514462060136033604C07344600D514462060136033608C07344601
:204EE00000D51446206013603360C907314600D0114608601360204C039F27600821695637
:204F0000276033600029344600DA14462060136033604C06344600D5144620601360336099
:204F20008C06344600D51446206013603360CC06344600D514462060136033600C07344622
:204F400000D514462060136033604C07344600D514462060136033608C07344600D51446DE
:204F6000206013603360C9073146029F00D17CE711467AE704B0F0BD90320A40A0120A406E
:204F800000002020F0B58BB009A80190724C00947248734905AA0AAB00F0D6F92088C00557
:204FA00000D4D6E0059803F071FC6121CD05294602F0FCFE04466B480460069803F066FC67
:204FC000294602F0F3FE064667480660079803F05DFC294602F0EAFE0746644807600898EA
:204FE00003F054FC294602F0E1FE054660480560032081070491304602F0D8FE06462046A6
:20500000214602F05EF8394602F0D0FE04463046294602F0CBFE214602F053F803F0D8FB4E
:20502000FEF7DAFC534A544B01F0F4FE03F008F9524908604D4804682046214602F041F896
:20504000074602904A480068039046480068014602F037F844490E68314602F0A7FE05462A
:205060003846039902F0A2FE294602F02AF803F0AFFB074603913046049902F097FE05469E
:205080002046029902F092FE04462846314602F08DFE214602F010F87F21C90502F011F817
:2050A00003F096FB02460B463846039900F024FE304A314B01F0AEFE03F0C2F83049086086
:2050C000294805682948076826480468284801680491204602F06AFE06462846394602F0DF
:2050E00065FE314601F0EDFF014601F0EAFF03F06FFB064603912846294602F057FE05462C
:205100002046214602F052FE294601F0DAFF04463846394602F04AFE0146204601F0CCFF5D
:2051200004460498014602F041FE0146204601F0C3FF03F04DFB02460B463046039900F0DB
:20514000DBFD0C4A0C4B01F065FE03F079F80D4908600BB0F0BDC0462C052020E40420204D
:20516000DE042020A8062020AC062020B0062020B40620206666666666A64C4010052020B8
:205180000C05202014052020F0B581B06D49884200D308466949502343430024009405E0A6
:2051A000641D7D20C000844200D1C5E00A6864481618009F02E0281A98421ED208689042BA
:2051C00000D901273D06154600D03546281A984213D20868904200D901273D06154600D033
:2051E0003546281A984208D20868904200D901273D061546DFD03546DDE70D6850482E181C
:20520000002702E0101A98421ED20868A84200D901273A062A4600D03246101A984213D255
:205220000868A84200D901273A062A4600D03246101A984208D20868A84200D901273A06A2
:205240002A46DFD03246DDE70D683D482E18002702E0101A98421ED20868A84200D901275B
:205260003A062A4600D03246101A984213D20868A84200D901273A062A4600D03246101AD0
:20528000984208D20868A84200D901273A062A46DFD03246DDE70D6829482E18002702E02F
:2052A000101A98421ED20868A84200D901273A062A4600D03246101A984213D20868A84264
:2052C00000D901273A062A4600D03246101A984208D20868A84200D901273A062A46DFD03D
:2052E0003246DDE70D6816482E18002703E0101A984200D354E70868A84200D901273A06A2
:205300002A4600D03246101A984200D348E70868A84200D901273A062A4600D03246101A52
:20532000984200D33CE70868A84200D901273A062A46DCD03246DAE701B0F0BD18E000E077
:20534000FFFFFF0033330300F0B58FB0049315460C460590149F159A0026F04306903E801B
:205360005F48007807A901F07DFF002802D006980FB0F0BD01940397012420020290594844
:20538000038814200342059F48D02A4600930798000607AE717809040D18B0780002F17842
:2053A000401840191746106008980006717909040818B1790902F2798918091879600999D5
:2053C0000906727A12045118B27A1202F37AD2185218BA600A9A1206737B1B049A18B37B8F
:2053E0001B02F67B9B199B18FB602B140014091412145B4340434943524318184018801865
:20540000F121090640186106884263D803990888029A104308801026009B059F580602D45B
:205420003246039C18E007A88119805D00024A788018019C208088780002CA7880186080E2
:205440000879000249794018A08006223243039C2088082101432180029D80352B42049E3A
:2054600017D007A88118805C00021D464B78C018388088780002CB78C0182B467880087962
:20548000000249794018B880921D2088702101432180980718D007A88518EC786878C1070C
:2054A0000AD011490A68002A06D007202040411CA006400F90476878000705D50B48016819
:2054C000002901D0A0098847304603F078F800200FB0F0BD00F0DCF800200399088046E7C0
:2054E000C2062020C0062020A0062020A4062020F0B589B00024E043059006AA8020107044
:205500005D4F03CF0B78817C5C48C568C826009658000123083FA847002821D1574D6969F6
:205520006420884706AA147003CF0B78817CE86804900096580001252B46049FB84700285F
:205540000ED1049503944C4903C90A78817D4B4805690096500006AA0623A847002802D0B2
:20556000059809B0F0BD06A84179C907490FC278D207920F51184078049C2040091851D081
:2055800001293E4F05D00229039B69D10296194601E00296039B384EF174304608303A4952
:2055A000F181FF213174B1740599B160347321047361B361F3613162037743778377C377DD
:2055C00008AA1820107003CE0B788179FD680298009058002346083EA8470028C0D108A825
:2055E0000078C0083072022002F004FB0028B7D12A2002F021FC0028B2D1322001F020FAA5
:205600000028ADD1002001F095FE0028A8D10025284600F0EDFE0028A2D1284601F08EFAAF
:2056200005959DE7144903C90A78C178134805690096500006AA01273B46A84700288FD1E9
:20564000029606A801780F20084004280CD00028039B1946094F9ED10A4802F09DF87FE7E1
:205660000A4802F053FF7BE73D46054802F094F8024F039B29468EE72006202070062020F5
:20568000FCA60000AAA40000FFFF0000BCA50000F0B585B00026F043634DA97A002900D1BB
:2056A000C0E0039004AA167003CD0B78C17B5F48C468C827009758000123083DA0470028CB
:2056C00019D1029603CD0A784179584EF4680097500004AA0123083DA04700280BD103CD81
:2056E0000A780179F4680097500004AA0123083DA047002802D0039805B0F0BD2420285CAE
:20570000002814D004AA0C20107003CD0B7801794648C468009758000123083DA047002835
:20572000E9D13E46A87AC0074AD01F2049E004AA0420107003CD0B7801793C48C46800975A
:2057400058000123083DA0470028D4D13E46AA7CA97A4020C907014600D06021002A334F93
:2057600000D0014604AA117003CD0B780179FC683746009658000123083DA0470028BAD144
:20578000687C411E884104AA107003CD0B78C17B264EF468009758000123083DA047002809
:2057A000A9D103CD0A784179F46800970835500001232A46A04700280398029E32D130E0F2
:2057C0003F20C043194F04AA107003CD0B780179FC68009658000123083DA04700288AD1DF
:2057E000687C411E8841400004AA107003CD0B78C17BFC68009658000123083DA0470028D6
:2058000000D078E704AA3446029E167003CD0B784179FD68009458000123A84700280398D7
:2058200000D1304605B0F0BD2006202070062020F0B595B00E4607460220C043614D2524FC
:20584000295D002902D0801C15B0F0BD002E00D1A1E00492029403930590002F00D184E07E
:2058600000220796069790B20D903B1A102B00DB1023A87A002800D190E0110A14A80C9150
:2058800001704270D0B299B209910F18686841898F4200D982E000782968097E0F934A4BEA
:2058A000DE68C825009540000E9214AA0223B0470F9B0799434C002870D10A970D980E18B8
:2058C00003CC0A78417D4048C0680D90DBB20B9500955000324608930D9F083CB847002830
:2058E0005CD1A07A00280B9F5BD00C98C0B214A908700E984870606841890A9A8A4250D891
:2059000000782168097E304AD4680097400014AA0223A0472B49002843D103C90A78417DEC
:20592000294804690097500010AA089BA047254D002836D109990029069F0FD00120401AF3
:2059400010A932780B789A4205D1491C761C441C00282046F5D19A421A4D2ED10E9A0F9873
:20596000121890B2B84200D27DE70499080A14AA1070517003CD0B78817E1348C468C8201C
:20598000009058000223083DA04700280DD00598C01E15B0F0BD401C15B0F0BD059815B0AC
:2059A000F0BD0598401E15B0F0BD0120029968540398E884002015B0F0BD0598801E15B0BC
:2059C000F0BDC0462006202070062020F0B58BB05A4E02AC0027277059480569C82000907D
:2059E000D020752101232246A847564801F0D4FE2078682803D0032030604F487060FFF73A
:205A000077FD002800D090E0782001F097F844424441002802D14B4801F0BEFE782001F0C3
:205A200089FC00283D4603D1474801F0B5FE2546C82001F005F800283C4603D1434801F0F4
:205A4000ABFE2C4603F02EF900283D4603D1404801F0A2FE2546AC2001F066F900283C4648
:205A600003D13C4801F098FE2C46FF207430FEF765FC00283D4603D1374801F08DFE2546D7
:205A8000C82002F04BFC002803D1344801F084FE2F4608A805A9FCF7ABFE072835D104A8AA
:205AA00002F030FE089802F0F1FE0146049C204602F07CF902F09CFF0890099802F0E6FEF5
:205AC0000146204602F072F902F092FF09900A9802F0DCFE0146204602F068F902F088FFB9
:205AE0000A9008A801F0A8F803AC204602F0D0FF208805994143059106994143069107993B
:205B00004143079105A801F037FD012000F012FE002803D0002F06D00BB0F0BD104801F0C5
:205B20003BFE002FF8D102F019F803203060024870600BB0F0BDC046010000E400030B40C3
:205B400070062020DCA6000050A6000007A6000038A50000E2A500002CA6000097A60000F7
:205B600074A60000FCB40124E407634002E0FCB40124E40708B41D03ED08D60D3543560282
:205B80005F007F0D06D12C00344300D0AEE001B0FCBC7047A408254307242402FF34A742A1
:205BA00005D10020190D090501B0FCBC7047002B03D50024A61BAC4125000B03DB08C20DE1
:205BC000134342024800400D07D11C00144300D08CE00EBC1000F0BC7047012464072343DC
:205BE00007242402FF34A04205D10020090D090501B0FCBC7047002903D50024A21A9C4147
:205C00002300C11B08D51C002B0025001400320026000024611A3800362925D502B4393978
:205C200049420C00203C03D22F008F40374301E03700A740002F01D040210E4302BC20296C
:205C40000BD500290ED04C42203420B4A5402C0020BC0D41CE40361904E000292E000D4186
:205C600020390E4192196B411C0014433ED00024002B04D5012400218A1A99410B00401E4F
:205C800052005B41FBD50121890215000D400CD0521800277B4101D3401C0BE00721C90101
:205CA00015000D4001D189008A43072109028A4352005B41801C19DD07210902FF318842AD
:205CC00009D30EBC0020C90F0902FF31C900C91D0905F0BC7047190B00050143E40721430F
:205CE0001805120B104301B0FCBC70470021002001B0FCBC7047FEE7F0B585B01E46054628
:205D000002920390504B514F04963E40501E1446844134439C4207D80F40681E2C4684413C
:205D20003C434948844208D90398029A049BFFF71EFF0C46214605B0F0BD4548049B18184C
:205D400010431AD00C46C90FD80F4000019141183D4316D032431CD03B48864217D1874207
:205D60001DD1424C3C48C0467944097949008F4401023B60DEE7414CDCE70398FEF762F924
:205D8000D7E702290398D5D3032918D015E0874218D10120C00704402E48241810E000242A
:205DA0002046C0467944097949008F4401020608C0E700200121CC07BCE72A4C00E02A4CE0
:205DC0002548B7E7B81B00153C2803DD214C2248019918E0002B09D500253B22D2439042B1
:205DE00004DA28462C460EE0234C23E003980D462146029A00F018FC0122D2079143FEF7CB
:205E000021F90C462946002994D0022905D0012912D10121C9074C408CE7104A104B214600
:205E2000FFF7A5FE02460B460B480E49FFF79AFE7FE70F4C0F487DE7084A094B2146FFF779
:205E400096FE054A084B72E70000F07FFFFFFF7F000010C0FB21F93F182D4454075C14331D
:205E600026A6A1BCFB210940FB2109C0FB21E93F7CD902C0D221337F7CD90240FB21E9BF54
:205E8000F0B58AB008910590002B00D1AAE00F980290203AD0B2009000240899069308E084
:205EA0000598401C05900899019C641C9C4200D198E00C2B019403D0009800014B4A03E0BF
:205EC0000C20009A5043484A10180019007809900598C0B2039000200490044607940598AD
:205EE00040B2012700283E4600D4049ECCB23F2C00D8049F099A52B23E43002A12D4002E9C
:205F000024D1E3080725EB1A8D430124AC40029A002ADEB212D0039AD300354AD3189D5D83
:205F2000A54311E0002E11D1E3080725EB1A8D430124AC40029A002ADEB2ECD0039AD300F9
:205F40002B4AD3189D5D25439D55069B4C1CE7B2089ABA1A9A42A3D0012200250028104660
:205F600000D428463F2F164600D82E463043099B5D0612D4002823D1F80807252E1AA543F1
:205F80000120A840029B002BF4B212D0039BDD00174B5D192E5D864311E0002810D1F80807
:205FA00007252E1AA5430120A840029B002BF4B2ECD0039BDD000E4B5D192E5D06432E55B1
:205FC000891CC8B2089BC01A069B9842079C00D166E72243099880000990A41C072A00D207
:205FE0007CE761E70AB0F0BD36A00000469A000000002020F0B585B00D4604465448014045
:2060000081420CD12046294622462B4600F002FF22462B46FFF7ABFD04460D4693E04D4B22
:20602000002D75DD012004900105280D06D10020002D05D11538E50A6405F9E72E460DE011
:2060400000220D4202D16D00521CFAE7801A401C2026B71A2646FE402E4394403E4A821822
:20606000481E304008430092D10703D0E10F400040186400E10F4000461800250498410541
:2060800001956400002911D04A19B71A304600DB3846B24200DC5518B24202DC019A5218E5
:2060A00001924000E20F86184908EAE75F1C00221346002F23D0D019AE4216DD03930023BF
:2060C0000028049A00D41A46C11902910029049900DA1946761B844200D2761E039B0A40B5
:2060E000AD18241ADB19029A03E002D18442E5D23546E00F71000E1864007F08D9E73443B7
:2061000013D0581C019A12D001201840C31810E028461840204316D0002D83D502F068FE7B
:20612000212101600E4D00240DE0019A01E0521C002350105908D207541800994908090545
:206140000818064945182046294605B0F0BDC0460000F07FFFFFFF7F01FCFFFF0000E03F31
:206160000000F87FF0B58BB0504E3569C82700974F4CD020752101232246A8472078682842
:2061800004D04C48032101604B49416034690097D0206B2105AA0123A04700280BD105AAC0
:2061A0001078F8210140881C1070F4680097D0206B210123A04734690097D0201B2106AA4F
:2061C0000123A04700280AD106981821014306AA1170F4680097D0201B210123A04734699E
:2061E0000097D0201C2107AA0123A04700280AD107AA1078E72101401170F4680097D02036
:206200001C210123A047306901900097D02004906B210291039708AF01253A462B46019CCD
:20622000A0473878BF2101403970F0680190039E0096049C204602993A462B46019FB847AC
:206240001A480069019000966A21029109AF20463A462B46019CA0473878DF210140397001
:206260001248C06801900096049C204602993A462B46019FB8470D48006902900096372601
:206280000AAF204631463A462B46029CA0473878FD21014039700548C468039800900498FA
:2062A00031463A462B46A0470BB0F0BD70062020D004202000030B40010000E4F0B585B050
:2062C00005460022D4431920800181426FD8072028406CD00192084602F03AFC3F4901F029
:2062E00075FE064603AF384602F0B8FB3878801E0121C84107285AD8394F8D21C905C04626
:2063000078440079400087440E0352075252520B364F2320410606E0334F8B20C10502E008
:20632000304F452001060294304601F03FFD04463046394601F03AFD02F05AFB07462046D8
:2063400002F056FB010A04AA11705070380A961C9070D770E80706D1A80716D46807029C59
:2063600028D4019C23E0492087003846B030022104AA01F0E9FD002818D102213846324661
:2063800001F0E2FD002811D1E6E7492084002046B430022104AA01F0D7FD002806D1201D4D
:2063A0000221324601F0D0FD0028D7D0029C204605B0F0BD492085002846B830022104AA3A
:2063C00001F0C2FD0028F2D1083502212846324601F0BAFD0028EAD1C3E7C0460000484316
:2063E000000040460000C044000040450000C045F0B585B00546454EB07CA84201D10024C5
:2064000081E000200290C44303CE0A78017940480769C82003900090500004AA0123083E2A
:20642000B847002D1FD000286DD104AA1078DF210140117003CE0B7801793548C7680398CE
:20644000009058000123083EB84700285BD1304F79690320884731460831887E002839D05D
:206460007D20C04337E000284DD1B07A04AA1178DF230B40C007800E1818107003CE0B7818
:2064800001792348C7680398009058000123083EB847002837D11E4F796903208847314614
:2064A0000831887E421E03469341DA01002801D07F20C04304AB1A70C97E002903D03021DD
:2064C000084304A9087003CE0A78017DFF68039800900FE00220039B04AA1070C97E00299C
:2064E00003D03021084304A9087003CE0A78017DFF680093083E500004AA0123B8470028AE
:2065000001D1B574029C204605B0F0BD2006202070062020B0B5364B8821996335480422D0
:206520000260D9630821016033498A1C1A601C681C605A605A685A601C68012255062C43F0
:206540001C605C682C435C6082241C652B4C5C6581249C67DC679C605C615C66284D5D63D6
:206560005D6B5D63274B19601D681D601D46103D2C601D46143D2C601D46083D2C601D1FBA
:206580002C60D963DC6BDC63D964DC6CDC6419621C6A1C621963196B19631B491B4B0B60B8
:2065A0000B631B490B68D2031A430A600A6905239B0413430B6117490A6A174B1A430A62FF
:2065C0000A681A430A6001463039612252020A60026012480168124A0A4302601148016A9D
:2065E0001122120511430162016811430160B0BD04804240D0320A4081000C0082000400AA
:2066000081000E00A0804240A0120A400060039090130A4028100A4080000006A0330A4048
:206620000001010028300A40FCB40C005C40E40FE40710B41D032D0B56006D415F007F0D75
:2066400073D001246405254307242402FF34A74261D00B031B0B42005B414800400D64D088
:2066600001246405234307242402FF34A04252D0C01B002100273624AB4200D1B24204D398
:206680007F414941921BAB4101E07F414941641E06D0002B01D1002A02D052005B41EBE7DB
:2066A000202C07D2162C0AD33900A7402026361BF1400BE0203C3900A140002706E0A1405F
:2066C0002026361B3D00F5402943A74001246405214202D17F004941401E00247F1C6141D2
:2066E0000124A405214202D0401CA14301E06408A14303242402FF34001916DD2419A0427B
:2067000009D8CC074908000501437808204310BC2143FCBC704702BC0020C90F0902FF21C8
:20672000C900C91D0905FCBC70470021002001B0FCBC7047F0B587B03F4C2427E15D0026B6
:20674000814275D0002846D02520205C002500286DD000290296019702D1A07A002812D058
:2067600004AA157003CC0B78C17B3448083C2646C468C820009058000123A0473446002883
:2067800001D1049860742846FFF732FEE08C00F057F903AA1570606800782849CE68C8276F
:2067A00000974000232101252B46B0470198255405AA0220107003CC0B78C17B1F48C668AA
:2067C000009758002B46083CB047002801D105986074029E28E0002902D1A07A002813D0EA
:2067E00006AA0020107003CC0B78C17B1348083C2546C468C820009058000123A0472C4638
:20680000002801D106986074207C03AA1070606800780A492546CC68C82100914000232113
:206820000123A0470020E855FEF732FF00E0EE43304607B0F0BDC0462006202070062020BD
:20684000F0B5394A8218394BC0183A4D4C790B79002C22D0466F202B02D00524E70100E069
:20686000354F2E40002B00D188273E434667846F2C403C438467446B2D4E34404463846B50
:206880003440846300244465846554688F26F643344054609468344094600C688979202BF0
:2068A00009D006467036002B15D1641E4460C46E2C40882715E0641E4460C46E2C401E4E64
:2068C0003443C466046F2C40344304671B4D01246707064607E00527FF0164084460C46EBA
:2068E0002C403C43C46634682C403C433460C46A0F4D2C40C462046B2C4004630024C464BE
:206900000465C46F8F25ED432C40C46714682C401460194302680A4B1340BD220A40D11884
:20692000891C0160F0BDC04684180000041800008888FDFF24493E0001040000FFFFFFCF5E
