:20000000008020200996000013630000136300000000000000000000000000000000000095
:2000200000000000000000000000000013630000000000000000000013630000136300005E
:2000400013630000BD83000013630000136300001363000013630000136300001363000026
:2000600000000000136300001363000000000000000000001363000013630000C17800006F
:2000800015800000136300001363000013630000136300001363000000000000000000007D
:2000A0001363000013630000000000000000000013630000000000001363000013630000F2
:2000C000F0B593B00126B503FD4C2561782005F069FB2560F00320613107FA4A116013465A
:2000E000103B1196F6071E60196011601660196011601E60196011601660196011601E6003
:20010000196011601E60196011601E6019601160166019602060206111601E60196011605C
:200120001E60196011601660196011601E60196011601660196011601E6019601160166051
:20014000196011601E6019602060206111601660196011601E601960116016601960116024
:200160001E6019601160166019601160166019601160166019601160166019602060206107
:2001800011601E60196011601660196011601E60196011601660196011601E6019601160F6
:2001A0001660196011601660196011601660196020602061116016601960116016601960CF
:2001C00011601E60196011601E60196011601E60196011601E60196011601E6019601160A6
:2001E0001E6019602060206111601E60196011601E60196011601660196011601E6019606F
:2002000011601660196011601660196011601E60196011601E601960206020611160166066
:20022000196011601660196011601660196011601660196011601660196011601660196065
:200240001160166019601160166019602060206111601660196011601E601960116016602E
:20026000196011601660196011601660196011601660196011601660196011601660196025
:200280002060206111601E60196011601660196011601660196011601660196011601E60E6
:2002A000196011601E60196011601660196011601E601960206020611160166019601160C3
:2002C0001660196011601660196011601E60196011601660196011601E60196011601660B8
:2002E00019601160166019602060206111601660196011601660196011601E60196011608B
:2003000016601960116016601960116016601960116016601960116016601960206020616D
:2003200011601660196011601660196011601660196011601660196011601660196011606C
:200340001660196011601E6019601160166019602060206111601E6019601160166019601D
:2003600011601E601960116016601960116016601960116016601960116016601960116024
:200380001E6019602060206111601E60196011601E601960116016601960116016601960D5
:2003A0001160166019601160166019601160166019601160166019602060206111601E60CD
:2003C000196011601E60196011601660196011601E60196011601E601960116016601960AC
:2003E00011601E60196011601660196020602061116016601960116016601960116016608D
:20040000196011601E60196011601660196011601660196011601E60196011601660196073
:200420002060206111601E601960116016601960116016601960116016601960116016604C
:20044000196011601660196011601660196011601E6019602060206111601E601960116021
:200460001E60196011601E60196011601660196011601E60196011601E60196011601E60FE
:20048000196011601E6019602060206111601E60196011601E6019601160166019601160D9
:2004A0001E60196011601E60196011601660196011601660196011601E60196004E0C046CB
:2004C00090320A40A0120A402060206111601E60196011601E60196011601E60196011606A
:2004E0001E60196011601660196011601660196011601660196011601E601960206020617C
:2005000011601E60196011601E60196011601660196011601E60196011601E60196011606A
:200520001660196011601E60196011601E601960206020611160166019601160166019603B
:2005400011601E60196011601E60196011601660196011601660196011601660196011603A
:20056000166019602060206111601E60196011601660196011601E601960116016601960FB
:2005800011601660196011601E6019601160166019601160166019602060206111601E60E3
:2005A000196011601660196011601E60196011601660196011601660196011601E601960D2
:2005C00011601E6019601160166019602060206111601E60196011601660196011601E609B
:2005E000196011601660196011601E60196011601E60196011601E60196011601E60196082
:200600002060024C80200A9002E0C04600002020109011984002129020180F900320C001C2
:200620000D9021180E912046E0300C902046C0300B902346A0332646803625466035274677
:20064000403720462030002121702172217421762022A154017201740176402021543972E6
:2006600039743976602021542972297429760A982154317231743176A020215419721974FF
:200680001976C02021540B98017201740176E02021540C98017201740176119800022154DC
:2006A0002126F00021541120000121542325E80021540920400121542523D800215413209B
:2006C000000121542722D00021540520800121542920C00021541520000121542B20C000C7
:2006E00021540B20400121542D20C00021541720000121542F20C00021540D9821540E9831
:200700000172017401760D20400121543520C00021541B20000121543720C00021540720A9
:20072000800121543920C00021541D20000121543B20C00021540F20400121543D20C000F0
:2007400021541F20000121543F20C0002154109840380F9C00D05BE7069508930992024CDF
:2007600080200A9602E0C046000020201190FF27384682300D9022180E922046E1300C9090
:200780002046C1300F902046A1300B9026468136224661322346413320462130617061723B
:2007A000617461760A9D61550172017401764120109021541972197419766123E154117278
:2007C000117411768122A154317231743176A126A1550B98017201740176C12561550F9884
:2007E000017201740176E1200F9021540C9801720174017638460230215438460A30215430
:2008000038461230215438461A30215438462230215438462A302154384632302154384601
:200820003A30215438464230215438464A30215438465230215438465A3021543846623005
:20084000215438466A30215438467230215438467A3021540D9821540E9801720174017645
:200860003846A23021543846AA3021543846B23021543846BA3021543846C23021543846D1
:20088000CA3021543846D23021543846DA3021543846E23021543846EA3021543846F23045
:2008A00021543846FA302154129824181198403800D05BE7079311970495024D802003922E
:2008C000059601E0000020200E90049840000C902A180D922846E2300B902846C2300A9050
:2008E0002A46A2322E4682362C4662342B46423328462230A970A972A974A9762227E955E3
:20090000017201740176422029541972197419766220295421722174217682202954317272
:2009200031743176059EA2202954117211741176C22029540A98017201740176E22029541B
:200940000B980172017401760398400029548522500029548920400029548D2040002954F9
:200960009120400029549520400029549920400029549D204000295470002954A52358009A
:200980002954A92040002954AD2040002954B12040002954B52040002954B9204000295414
:2009A000BD20400029540C9829540D98017201740176D12040002954D52040002954D9201F
:2009C00040002954DD20400029540F9840002954E52460002954E92040002954ED20400043
:2009E0002954F12040002954F52040002954F92040002954FD204000295412982D180E9895
:200A0000403800D060E700940193029201488022119B01E0000020200E9284330C93C21803
:200A20000D920246E3320B920246C3320A920546A335064683360446633403464333024634
:200A40002332C170C172C174C176069FC15511721174117643220F928154197219741976A5
:200A600063228154217221742176119B83240155317231743176A32681552972297429764F
:200A8000C32541550A9A117211741176E327C1550B9A1172117411761A46043281541A4686
:200AA0000C3281541A46143281541A461C3281541A46243281541A462C3281541A46343241
:200AC00081541A463C3281541A46443281541A464C3281541A46543281541A465C328154C2
:200AE0001A46643281541A466C3281541A46743281541A467C3281540C9A81540D9A1172F5
:200B0000117411761A46A43281541A46AC3281541A46B43281541A46BC3281541A46C43217
:200B200081541A46CC3281541A46D43281541A46DC3281541A46E43281541A46EC32815491
:200B40001A46F43281541A46FC328154129A80180E9A403A00D05FE70397049505960694F3
:200B6000014E802002E0C046000020200E90079880000C9032180D923046E4300B90304681
:200B8000C4300A903746A437344684343246643233464433304624303171317331753177E1
:200BA0002425715501720174017644203154197219741976642031541172117411768420FB
:200BC0003154217221742176A4203154397239743976C42031540A98017201740176E42013
:200BE00031540B980172017401761098800031540F98800031544523980031544722900097
:200C000031544920800031544B20800031544D20800031544F208000315451208000315415
:200C20005320800031545520800031545720800031545920800031545B20800031545D20CB
:200C4000800031545F20800031540C9831540D980172017401766920800031546B20800045
:200C600031546D20800031546F208000315471208000315473208000315475208000315401
:200C80007720800031547920800031547B20800031547D20800031547F208000315412988A
:200CA00036180E98403800D060E70792F64A80200B93119B089F109086330E93D0180F90C6
:200CC0001046E5300D901046C5300C901646A536154685351446653413464533104625306A
:200CE0005171517351755177D1550172017401760B9811541972197419766520115421722F
:200D000021742176119B0298115429722974297601981154317231743176C52011540C984A
:200D2000017201740176009811540D9801720174017618460630115418460E3011541846FB
:200D40001630115418461E30115418462630115418462E30115418463630115418463E30A8
:200D6000115418464630115418464E30115418465630115418465E301154184666301154A1
:200D800018466E30115418467630115418467E3011540E9811540F980172017401761846A9
:200DA000A63011541846AE3011541846B63011541846BE3011541846C63011541846CE30E8
:200DC00011541846D63011541846DE3011541846E63011541846EE3011541846F630115471
:200DE0001846FE301154129812181098403800D061E7A54D80201090049840000E902A1808
:200E00000F922846E6300D902846C6300C902E46A6362F4686372C4666342B46463328462A
:200E20002630A971A973A975A9772622A95401720174017646202954197219741976662034
:200E40002954217221742176119A86202954397239743976A6202954317231743176C62069
:200E600029540C98017201740176E62029540D98017201740176069840002954872358000E
:200E800029548B20400029548F20400029549320400029549720400029549B2040002954A5
:200EA0009F2040002954059840002954A72460002954AB2040002954AF2040002954B320CD
:200EC00040002954B72040002954BB2040002954BF20400029540E9829540F9801720174DB
:200EE0000176D32040002954D72040002954DB2040002954DF20400029540398400029544B
:200F0000E72670002954EB2040002954EF2040002954F32040002954F72040002954FB2084
:200F2000400029545000295412982D181098403800D060E7544D8020089302940196109058
:200F4000104688300E902B180F9310320C92A8180D902846E7300B902846C7300A902F462F
:200F6000A7372C4687342B4667332A46473228462730E971E973E975E977099EA955017221
:200F8000017401760798295411721174117667202954197219741976089BE9542172217407
:200FA0002176029C119A2955397239743976C72029540A98017201740176019EA9550B9827
:200FC0000172017401761046083029540C9829540D98017210462030295410462830295420
:200FE00010463030295410463830295410464030295410464830295410465030295410464C
:20100000583029541046603029541046683029541046703029541046783029541046803009
:2010200029540E9829540F980172017401761046A83029541046B03029541046B8302954F1
:201040001046C03029541046C83029541046D03029541046D83029541046E030295410461B
:20106000E83029541046F03029541046F83029540648295412982D181098403800D05EE7FE
:2010800004F08AF913B0F0BD00002020FF010000F0B595B0054601921078002809D115B012
:2010A000F0BD08350198411C4078002801910C99F5D0EAB27A2A00D900257A2A00D9103178
:2010C000CAB23B2A01D200F044FD80200C90014A02E0C04600002020139001200F904002D7
:2010E0001490101812900320C0011090111811911046E0300E901046C0300D901446A0341E
:2011000017468037164660361146403110462030002515701572157415762023D554057233
:2011200005740576402015540D720D740D76602015543572357435760C9815543D723D741E
:201140003D76A0201554257225742576C02015540D98057205740576E02015540E98057209
:20116000057405760F98000215542126F00015541120000115542324E00015540920400134
:2011800015542523D80015541320000115542721C80015540520800115542920C0001554C6
:2011A0001520000115542B20C00015540B20400115542D20C00015541720000115542F20E1
:2011C000C00015541098155411980572057405760D20400115543520C00015541B20000130
:2011E00015543720C00015540720800115543920C00015541D20000115543B20C000155448
:201200000F20400115543D20C00015541F20000115543F20C000155413984038129A00D09F
:201220005AE7079409930A918020014F089601E0000020201090FF20139082300E903918E9
:201240000F913846E1300D903846C1300C903E46A1363C468134394661313A4641323846A3
:2012600021307D707D727D747D76089BFD54057205740576412012903D54157215741576CF
:201280006122BD540D720D740D761399812011903D54257225742576A1243D553572357446
:2012A0003576C126BD550C98057205740576E123FD540D98057205740576084602303D5405
:2012C00008460A303D54084612303D5408461A303D54084622303D5408462A303D540846F3
:2012E00032303D5408463A303D54084642303D5408464A303D54084652303D5408465A30CF
:201300003D54084662303D5408466A303D54084672303D5408467A303D540E983D540F986A
:201320000572057405760846A2303D540846AA303D540846B2303D540846BA303D54084600
:20134000C2303D540846CA303D540846D2303D540846DA303D540846E2303D540846EA300E
:201360003D540846F2303D540846FA303D5414983F181098403800D05CE7089280200693C9
:20138000014B05940B9601E000002020109070000E9019180F911846E2300D901846C230CA
:2013A0000C901F46A2371C468234194662311A464232184622309D709D729D749D7622263D
:2013C0009D550B9E05720574057642201D5415721574157662201D540D720D740D76822081
:2013E0001D54257225742576A2201D543D723D743D76C2201D540C98057205740576E22007
:201400001D540D98057205740576119840001D54852148001D54892040001D548D2040004B
:201420001D54912040001D54952040001D54992040001D549D2040001D54059840001D544D
:20144000A52250001D54A92040001D54AD2040001D54B12040001D54B52040001D54B9202B
:2014600040001D54BD2040001D540E981D540F98057205740576D12040001D54D52040002D
:201480001D54D92040001D54DD2040001D54069840001D54E52460001D54E92040001D54A0
:2014A000ED2040001D54F12040001D54F52040001D54F92040001D54FD2040001D541498A2
:2014C0001B181098403800D060E702940392049180200149139F01E0000020201090384607
:2014E00084300E900A180F920846E3300D900846C3300C900846A3300B900C4683340B46E6
:2015000063330A46433208462330CD70CD72CD74CD76079E8D5505720574057643201190D9
:201520000D5415721574157663200D541D721D741D7683228D54257225742576A323CD54E0
:201540000B98057205740576C3240D550C98057205740576E3268D550D980572057405762A
:20156000384604300D5438460C300D54384614300D5438461C300D54384624300D5438463E
:201580002C300D54384634300D5438463C300D54384644300D5438464C300D543846543050
:2015A0000D5438465C300D54384664300D5438466C300D54384674300D5438467C300D5463
:2015C0000E980D540F980572057405763846A4300D543846AC300D543846B4300D54384643
:2015E000BC300D543846C4300D543846CC300D543846D4300D543846DC300D543846E43090
:201600000D543846EC300D543846F4300D543846FC300D54149809181098403800D05DE75F
:201620000596069407930B928020014902E0C046000020201090089880000E900A180F920B
:201640000846E4300D900846C4300C900C46A4340E4684360B4664330A4644320846243025
:201660000D710D730D750D772427CD5505720574057644200D5415721574157664200D5449
:201680001D721D741D7684200D54357235743576A4200D54257225742576C4200D540C98BE
:2016A000057205740576E4200D540D98057205740576129880000D54119880000D544523CD
:2016C00098000D54472290000D54492080000D544B2080000D544D2080000D544F208000E4
:2016E0000D54512080000D54532080000D54552080000D54572080000D54592080000D54DB
:201700005B2080000D545D2080000D545F2080000D540E980D540F9805720574057669200D
:2017200080000D546B2080000D546D2080000D546F2080000D54712080000D5473208000F9
:201740000D54752080000D54772080000D54792080000D547B2080000D547D2080000D54C6
:201760007F2080000D54149809181098403800D060E7089280200D93FC4B139912908631BF
:201780001091581811901846E5300F901846C5300E901E46A5361C468534194665311A46E5
:2017A0004532184625305D715D735D755D77099FDD550572057405760D981D541572157450
:2017C000157665201D540D720D740D76139904981D5425722574257603981D543572357425
:2017E0003576C5201D540E9805720574057602981D540F98057205740576084606301D54C5
:2018000008460E301D54084616301D5408461E301D54084626301D5408462E301D54084639
:2018200036301D5408463E301D54084646301D5408464E301D54084656301D5408465E3011
:201840001D54084666301D5408466E301D54084676301D5408467E301D5410981D541198D1
:201860000572057405760846A6301D540846AE301D540846B6301D540846BE301D5408462B
:20188000C6301D540846CE301D540846D6301D540846DE301D540846E6301D540846EE3051
:2018A0001D540846F6301D540846FE301D5414981B181298403800D060E78020AB4E129092
:2018C000069840001090311811913046E6300F903046C6300E903146A63137468637344668
:2018E00066343246463230462630B571B573B575B5772623F5540572057405764620355402
:2019000015721574157666203554257225742576862035543D723D743D76A62035540D7242
:201920000D740D761399C62035540E98057205740576E62035540F980572057405760B9833
:20194000400035548722500035548B20400035548F204000355493204000355497204000DD
:2019600035549B20400035549F2040003554079840003554A72358003554AB20400035542B
:20198000AF2040003554B32040003554B72040003554BB2040003554BF204000355410987F
:2019A00035541198057205740576D32040003554D72040003554DB2040003554DF2040000B
:2019C0003554059840003554E72460003554EB2040003554EF2040003554F320400035549C
:2019E000F72040003554FB204000355448003554149836181298403800D060E78027D54E55
:201A000009920493039412970846883010903218119210310E9170180F903046E7300D9090
:201A20003046C7300C903746A73733468733324667323146473130462730F571F573F5750A
:201A4000F5770A9C3555057205740576089835540D720D740D761399672035541572157407
:201A60001576099AB5541D721D741D76049BF5543D723D743D76129FC72035540C98057245
:201A800005740576039C35550D980572057405760846083035540E9835540F98057208466F
:201AA00020303554084628303554084630303554084638303554084640303554084648309B
:201AC00035540846503035540846583035540846603035540846683035540846703035547A
:201AE0000846783035540846803035541098355411980572057405760846A830355408469E
:201B0000B03035540846B83035540846C03035540846C83035540846D03035540846D830DA
:201B200035540846E03035540846E83035540846F03035540846F83035548748355414984C
:201B40003618403F00D05EE703F026FC0198007829462038C0B20D90C8B2149000200F90CA
:201B6000024610950C910F460CE0C046000020201098401C10900C9F0E9A521C0C2A01D1E7
:201B8000FFF78FFA0C200D994843744908180E92805C1099C9B212910F9A1192109949B259
:201BA000012213910029164600D40F9EF9B23F2900D80F9A43B21643002B0FD4002E1DD14C
:201BC000C9080722511ABA4301239340C9B2129AD200604CA218545C9C430EE0002E0DD1C4
:201BE000C9080722511ABA4301239340C9B2129AD200584CA218545C1C4354547E1CF1B241
:201C0000149A8A1A0C2AB3D001230024139A002A1A4600D422463F2900D823461A434306AF
:201C20000FD4002A1DD1C9080722511AB24301239340C9B2129AD200464CA218545C9C4384
:201C40000EE0002A0DD1C9080722511AB24301239340C9B2129AD2003E4CA218545C1C43F1
:201C60005454BE1CF1B2149A8A1A0C2A00D17FE701230024139A002A1A4600D422463F295D
:201C800000D823461A4383060FD4002A1DD1C9080722511AB24301239340C9B2129AD200D8
:201CA0002C4CA218545C9C430EE0002A0DD1C9080722511AB24301239340C9B2129AD20023
:201CC000244CA218545C1C435454FE1CF1B2149A8A1A0C2A00D14BE701230024139A002ABC
:201CE0001A4600D422463F2900D823461A43C3060FD4002A1DD1C9080722511AB243012300
:201D00009340C9B2129AD200124CA218545C9C430EE0002A0DD1C9080722511AB2430123DC
:201D20009340C9B2129AD2000A4CA218545C1C4354543F1DF9B2149A891A0C29119A00D107
:201D400016E7032111430001121D072900D224E712E7C04600002020FF010000F6A70000F5
:201D6000F0B593B0014C80200A9001E000002020119001200D904002129020181090032095
:201D8000C0010E9021180F912046E0300C902046C0300B902546A0352746803726466036A2
:201DA0002246403220462030002121702172217421762023E1540172017401764020215476
:201DC000117211741176602021543172317431760A982154397239743976A02021542972A2
:201DE00029742976C02021540B98017201740176E02021540C980172017401760D98000231
:201E000021542126F00021541120000121542325E80021540920400121542523D8002154E1
:201E20001320000121542722D00021540520800121542920C00021541520000121542B20DC
:201E4000C00021540B20400121542D20C00021541720000121542F20C00021540E9821549E
:201E60000F980172017401760D20400121543520C00021541B20000121543720C0002154B2
:201E80000720800121543920C00021541D20000121543B20C00021540F20400121543D2012
:201EA000C00021541F20000121543F20C000215411984038109C00D05AE7069508930992F5
:201EC000014C80200A9601E0000020201190FF27384682300D9022180E922046E1300C90D3
:201EE0002046C1300F902046A1300B902646813622466132234641332046213061706172C4
:201F0000617461760A9D61550172017401764120109021541972197419766123E154117200
:201F2000117411768122A154317231743176A126A1550B98017201740176C12561550F980C
:201F4000017201740176E1200F9021540C9801720174017638460230215438460A302154B8
:201F600038461230215438461A30215438462230215438462A30215438463230215438468A
:201F80003A30215438464230215438464A30215438465230215438465A302154384662308E
:201FA000215438466A30215438467230215438467A3021540D9821540E98017201740176CE
:201FC0003846A23021543846AA3021543846B23021543846BA3021543846C230215438465A
:201FE000CA3021543846D23021543846DA3021543846E23021543846EA3021543846F230CE
:2020000021543846FA302154129824181198403800D05BE7079311970495024D80200392B6
:20202000059601E0000020200E90049840000C902A180D922846E2300B902846C2300A90D8
:202040002A46A2322E4682362C4662342B46423328462230A970A972A974A9762227E9556B
:202060000172017401764220295419721974197662202954217221742176822029543172FB
:2020800031743176059EA2202954117211741176C22029540A98017201740176E2202954A4
:2020A0000B980172017401760398400029548522500029548920400029548D204000295482
:2020C0009120400029549520400029549920400029549D204000295470002954A523580023
:2020E0002954A92040002954AD2040002954B12040002954B52040002954B920400029549D
:20210000BD20400029540C9829540D98017201740176D12040002954D52040002954D920A7
:2021200040002954DD20400029540F9840002954E52460002954E92040002954ED204000CB
:202140002954F12040002954F52040002954F92040002954FD204000295412982D180E981D
:20216000403800D060E700940193029201488022119B01E0000020200E9284330C93C2188C
:202180000D920246E3320B920246C3320A920546A3350646833604466334034643330246BD
:2021A0002332C170C172C174C176069FC15511721174117643220F9281541972197419762E
:2021C00063228154217221742176119B83240155317231743176A3268155297229742976D8
:2021E000C32541550A9A117211741176E327C1550B9A1172117411761A46043281541A460F
:202200000C3281541A46143281541A461C3281541A46243281541A462C3281541A463432C9
:2022200081541A463C3281541A46443281541A464C3281541A46543281541A465C3281544A
:202240001A46643281541A466C3281541A46743281541A467C3281540C9A81540D9A11727D
:20226000117411761A46A43281541A46AC3281541A46B43281541A46BC3281541A46C432A0
:2022800081541A46CC3281541A46D43281541A46DC3281541A46E43281541A46EC3281541A
:2022A0001A46F43281541A46FC328154129A80180E9A403A00D05FE703970495059606947C
:2022C000014E802002E0C046000020200E90079880000C9032180D923046E4300B9030460A
:2022E000C4300A903746A4373446843432466432334644333046243031713173317531776A
:20230000242571550172017401764420315419721974197664203154117211741176842083
:202320003154217221742176A4203154397239743976C42031540A98017201740176E4209B
:2023400031540B980172017401761098800031540F9880003154452398003154472290001F
:2023600031544920800031544B20800031544D20800031544F20800031545120800031549E
:202380005320800031545520800031545720800031545920800031545B20800031545D2054
:2023A000800031545F20800031540C9831540D980172017401766920800031546B208000CE
:2023C00031546D20800031546F20800031547120800031547320800031547520800031548A
:2023E0007720800031547920800031547B20800031547D20800031547F2080003154129813
:2024000036180E98403800D060E70792F64A80200B93119B089F109086330E93D0180F904E
:202420001046E5300D901046C5300C901646A53615468535144665341346453310462530F2
:202440005171517351755177D1550172017401760B981154197219741976652011542172B7
:2024600021742176119B0298115429722974297601981154317231743176C52011540C98D3
:20248000017201740176009811540D9801720174017618460630115418460E301154184684
:2024A0001630115418461E30115418462630115418462E30115418463630115418463E3031
:2024C000115418464630115418464E30115418465630115418465E3011541846663011542A
:2024E00018466E30115418467630115418467E3011540E9811540F98017201740176184632
:20250000A63011541846AE3011541846B63011541846BE3011541846C63011541846CE3070
:2025200011541846D63011541846DE3011541846E63011541846EE3011541846F6301154F9
:202540001846FE301154129812181098403800D061E7A54D80201090049840000E902A1890
:202560000F922846E6300D902846C6300C902E46A6362F4686372C4666342B4646332846B3
:202580002630A971A973A975A9772622A954017201740176462029541972197419766620BD
:2025A0002954217221742176119A86202954397239743976A6202954317231743176C620F2
:2025C00029540C98017201740176E62029540D980172017401760698400029548723580097
:2025E00029548B20400029548F20400029549320400029549720400029549B20400029542E
:202600009F2040002954059840002954A72460002954AB2040002954AF2040002954B32055
:2026200040002954B72040002954BB2040002954BF20400029540E9829540F980172017463
:202640000176D32040002954D72040002954DB2040002954DF2040002954039840002954D3
:20266000E72670002954EB2040002954EF2040002954F32040002954F72040002954FB200D
:20268000400029545000295412982D181098403800D060E7544D80200893029401961090E1
:2026A000104688300E902B180F9310320C92A8180D902846E7300B902846C7300A902F46B8
:2026C000A7372C4687342B4667332A46473228462730E971E973E975E977099EA9550172AA
:2026E000017401760798295411721174117667202954197219741976089BE9542172217490
:202700002176029C119A2955397239743976C72029540A98017201740176019EA9550B98AF
:202720000172017401761046083029540C9829540D980172104620302954104628302954A8
:202740001046303029541046383029541046403029541046483029541046503029541046D4
:20276000583029541046603029541046683029541046703029541046783029541046803092
:2027800029540E9829540F980172017401761046A83029541046B03029541046B83029547A
:2027A0001046C03029541046C83029541046D03029541046D83029541046E03029541046A4
:2027C000E83029541046F03029541046F83029540648295412982D181098403800D05EE787
:2027E00002F0DAFD13B0F0BD00002020FF010000F0B5A1B019910746EF4E2420305C1890BE
:20280000002802D0002004F02DFB307A00220328134602D84000E9490B5A707A0328114615
:2028200008D88000F17C002901D0E54900E0E5490818016814931291F17A06291346144675
:202840001546109214D8481E424242417F2008400623C34001210B400E24C4400C401E25DD
:20286000C5400D4013973E27C7400F401097139F0B950C940E930F92F0891590B07A1690D8
:20288000307C17900025384619992A4601F008FB002808D0384619992A4601F001FB002877
:2028A0002C4600D066E31DA81AA901220D9201F0F7FA002808D01DA81AA9012201F0F0FADB
:2028C00000282C4600D055E31397099570680078BD490C69C8210891009140000D2120AAF8
:2028E0000423A047002800D0FDE02098C0081C23184020ACE678B106890F0A186578EF086F
:202900001F403507AD0F029701957D190595A478E4081C400794032306931E400024002A97
:202920000A94039645D0571E14D00843801EC2B2AB2104925143490A069A5143401A401C62
:202940001190C0B2032801D100211191032803D19E4C1BE09D4C2CE000259C4C20469C4973
:2029600005F0BCFD044601202843C0B21199CEB2B0420AD02046964905F0B0FD0446BF1E5D
:20298000AD1CE8B2B042E9D100E07F1E04980228039E0ED38E4D2046294605F09FFD2946B3
:2029A00005F09CFD294605F099FD0446FF1E3806F1D1079880190490059800280A9D48D0D8
:2029C000471E17D0029801990843801EC2B2AB2102925143490A069A5143401A401C119048
:2029E000C0B2032801D1002111910594032803D1764D1BE0754D2CE00026744D284674496F
:202A000005F06CFD054601203043C0B21199CCB2A0420AD028466E4905F060FD0546BF1E84
:202A2000B61CF0B2A042E9D100E07F1E02980228059C0ED3664E2846314605F04FFD314672
:202A400005F04CFD314605F049FD0546FF1E3806F1D10498002846D0471E17D003980799BD
:202A60000143881EC2B2AB210A925143490A069A4A43801A401C1190C0B2032801D1002155
:202A800011910594032803D1504817E04F4829E000264E484E4905F021FD01213143C9B256
:202AA000119AD4B2A14208D0494905F017FDBF1EB61CF1B2A142EDD100E07F1E0A99022951
:202AC00002D20A90059C0EE0414E059C314605F005FD314605F002FD314605F0FFFCFF1E6C
:202AE0003906F3D10A90199800681A99401AC1174840401A06F082FA6F21C905119105F0F2
:202B0000EDFC074600262046314606F005F8002810D13846214605F0F1FD2E4904F069FEE6
:202B20000124E10788432C4906F01EF800280ED026460CE02949384605F0F8FF0446284947
:202B4000384606F011F806462643701E8641199840681B99401AC1174840401A06F04EFA8F
:202B6000119905F0BBFC04460021284605F0D4FF002810D12046294605F0C0FD154904F07C
:202B800038FE0121C9078843134905F0EDFF002828D0B71C27E0B71C1149204605F0E4FFA0
:202BA00000283D4600D135460C49204605F0BEFF002818D12F4616E0200620200EB0000011
:202BC00094AF000084AF0000700620207B14AE3E1D5A843F000080BF295C0F3E9A99993EF9
:202BE0003333733F3746F44E199880681C99401AC1174840401A06F001FA119905F06EFCA2
:202C0000044600210A9D2846199105F085FF002811D12046294605F071FDFA4904F0E9FDB2
:202C20000121C9078843F84905F09EFF002814D0381D0A9012E03E1DF649204605F094FF8F
:202C400000280A9600D13E46F549204605F06EFF002800D10A96D84E00E00A97139F706887
:202C60000078F0490C690899009140000D2120AA03252B46A047002801D0072573E120A803
:202C800004781F210C40047042780A40427082780A40827038681D99401AC1174840401A62
:202CA00006F0ACF9119905F019FC2106089514D0661E310607901FD0A21ED3B2AB21069332
:202CC0005943490A6943511A491CCAB2032A00D01991032A12D1D4492CE0D449044605F0D1
:202CE00025FF0746D249204605F03EFF3843139F411E8841199045E0CB492EE00024CA4934
:202D0000CC4F0846394605F0E9FB014620460D9A1043C0B2199AD5B2A8420AD0084639460E
:202D200005F0DCFB0146B61EA41CE0B2A842E8D100E0761E06980228139F0ED3BD4D084690
:202D4000294605F0CBFB294605F0C8FB294605F0C5FB0146F61E3006F1D120A80022199216
:202D60000270079805F0CAFCEB4904F042FD0D9CE1078843E94905F0F7FE0028E44E089DA9
:202D800000D0199478681E99401AC1174840401A06F034F9119905F0A1FB20A94A7811060B
:202DA000079013D0561E310621D0921ED3B2AB210D935943490A6943511A4C1CE1B203292F
:202DC00000D10024032914D1D5492BE019998C1CD64905F0C9FE00280D9400D1199CD24925
:202DE000079805F0A3FE002845D10D9443E0CC492BE00025CA490846CA4905F06FFB01463D
:202E000001202843C0B2E7B2B8420AD00846C54905F064FB0146B61EAD1CE8B2B842EAD164
:202E200000E0761E0D980228089D0ED3BD4F0846394605F053FB394605F050FB394605F07A
:202E40004DFB0146F61E3006F1D120A800224270079805F053FCB04904F0CBFC0121C907B2
:202E60008843AE4905F080FE0028199800D0801C0D90A74E139FB8681F99401AC117484002
:202E8000401A06F0BBF8119905F028FB20A98A78110614D0561E3106199023D0921ED3B22B
:202EA000AB2113935943490A4D43511B4F1CF9B2032900D10027032916D199492DE00D9FCD
:202EC0003D1D9A49044605F04FFE0028284600D1384607469449204605F028FE002842D15E
:202EE0003D4640E08E492AE000258D4908468D4905F0F4FA014601202843C0B2FCB2A04277
:202F00000AD00846874905F0E9FA0146B61EAD1CE8B2A042EAD100E0761E139802280ED39C
:202F2000804C0846214605F0D9FA214605F0D6FA214605F0D3FA0146F61E3006F1D120A8D8
:202F400000228270199805F0D9FB734904F051FC0121C9078843714905F006FE00280D9DA4
:202F600000D02D1D6A4E6C426C410A98002800D1A41C099D6E48F081FF203074E843B060FE
:202F8000012535736B48149A824208DCFA2A10D07D20800082422AD120A8082110E07D20FC
:202FA000C1008A420AD00001824220D120A8182106E020A8002103E02006202020A81021E2
:202FC000017003CE0A7881795248C668C8200090500020AA0123B0474D4E002803D120A85F
:202FE0000078C0083072B07A002800D17DE01298C0B2801EE841072840D804A1085C4000FC
:203000008744C046000080BF295C0F3E0A1F3C1A3C3C3C233333733F20A80025057018E006
:203020009A99993E700620200000C841000020410000D24254E3853F20A8102101700225C6
:2030400007E020A80821017003E020A8182101700325707AA84211D003CE0A78C1792D48F3
:20306000C568C8200090500020AA0123083EA847002803D120A80078C0087072B07A002800
:2030800033D00F98002802D020A9012019E00E98002802D020A9022013E00C98002802D08D
:2030A00020A903200DE00B98002802D020A9042007E01098002802D020A9052001E020A98C
:2030C00006200870F17A81420FD003CE0A7881781048C568C8200090500020AA0123083E78
:2030E000A847002801D12098F072159804F040F8169804F0BBF8179804F0B4FC1898002874
:2031000002D0012003F0AEFE204621B0F0BDC0462006202070062020000080BF295C0F3E06
:203120000000C84154E3853F000020410000D242FFFF0000E7030000F0B5FFB08EB0049305
:2031400006920646929802900025E84305908C913468204606F0EFF921188B9503918C4232
:2031600000D3B5E00020879087A908738890059889902F46049D2078002800D1A9E02528BA
:2031800005D0641C34600699A8477F1CF3E78B97601C306087AC2046314600F0A1F88CAA46
:2031A0002046314600F0B9F831680A781346683B0120C341092B2BD87B441B795B009F448D
:2031C00004130A272727162727194B78879A682B19D1430204E04B78879A6C2B10D10302F1
:2031E0001A438792891C12E0879AC30204E0879A430301E0879A030313438793491C06E0CE
:20320000491C402301E0491C20231A4387920A784C1C346087A90A73732A1ED06E2A28D1A0
:2032200087992E4A1140202947D040293BD04203914238D0420291423AD0C202914205D024
:20324000020391422FD0000281422CD1F8178C9904C98C911760506033E087A80078400690
:2032600019D4009587A88CAA8BAB069900F015F927E007AD87A98CAA284600F065F902466F
:2032800028460699029B9847411C059D00D0C5198B95039917E0009587A88CAA8BAB069976
:2032A00000F097F80DE08C9802C88C900F6008E08C9802C88C900F7003E08C9802C88C90CB
:2032C0000F8003998B9D681C00D048E7059F00E02F4638467FB00EB0F0BDC046603F000062
:2032E00010B50A681378302B0FD0232B07D02B2B09D02D2B05D0202B0ED1042306E00823EF
:2033000004E0012302E0022300E0102304681C430460521C0A60E5E710BDFEB516460D4689
:203320000446086802782A2A10D13068011D316000686060002805D54042606020680121C7
:20334000014321602868471C2F6017E00021303A092A08D84218531C2B60435C6F467B541A
:203360005278491CF3E76A460023535412784718002A03D0684605F0E3FD606038782E289B
:2033800026D1781C286079782A2908D13068011D31600068A0602868401C2860FEBD0020FF
:2033A0003039092908D839188A1C2A604A786B461A548978401CF3E76A460021115410783B
:2033C000002804D0684605F0BBFDA060FEBDA160FEBDF0B587B01E460C9F13681C1D14600C
:2033E0001D68002D3BD0049106908468002C04D4284606F089F8844203D3284606F084F894
:20340000044606984068A042039000DC204601463068019140180296306005940398A0425E
:203420000EDD06980078C0070AD1059801990E1A0024B44204DA20200499B847641CF8E757
:203440000026049C069805998E420BDA2868010A19D12D1DC0B22146B847761CF2E7002083
:20346000B84718E00599039A8A4214DD0078C00711D00198451A0024AC420CDA2020049970
:20348000B847641CF8E70020C0430299086006F091F85821016007B0F0BDF0B585B00C46BF
:2034A00006460A9D1068011D116000680490002844D00393B768002F04D4049806F03BF859
:2034C000874203D3049806F036F8074602967268BA42114600DC3946039B18680091401819
:2034E00018600192BA420FDD02980078C0070BD10098C01B039000260398864204DA202077
:203500002146A847761CF7E70026BE4205DA0498805D2146A847761CF7E70198B84210DD21
:2035200002980078C0070CD00098C61B0027B74207DA20202146A8477F1CF8E700202146C5
:20354000A84705B0F0BDC046F0B589B005920E4604467F208000271848680390002507959F
:20356000FF210491FE3120222046019205F0DCFF3046089702977D70367B314663391529BF
:2035800006903DD801228A40604B1A42069822D007A908AA059B00F0BDF806980025067B11
:2035A000012731466F390929059504D801228A4057490A423FD1582E3DD0016802230B40C7
:2035C000079A002A27D008994A1E08922D220A705F425F412FE0002912D1059B1A68111D11
:2035E00019601268D1B24D424D410499FC316118089102990A70026802218A430260CEE7D6
:20360000252E02D0582EC3D0CAE70020607025202070012078E0002B07D149070BD5089AA8
:20362000511E08910199117005E0089A511E08912B2111700027039903976518089B017815
:20364000C907264608D10299491CC91A42689142264601DC691A4E1C591C04984300002744
:2036600030463A4605F092FE08900599002903D0411C0891077000E00146A94206D8481EDA
:20368000691A491C202205F04FFF2F7006980078C00606D4311B2022204605F045FF059D99
:2036A0002EE0A642059D2BD0311B302720463A4605F03AFF069B079841424141039801409F
:2036C000012905D11878400702D43046214604E03078611C2070701C37701A7B412A0CD0B8
:2036E000582A05D0612A08D0782A01D0702A07D11B781B0701D4612A02D142784A70477018
:20370000204605F018FF401909B0F0BD4230240043020000F8B514460F46054680680028E6
:2037200004D4286810218843286001E00120A860287B1026582808D0782806D0702804D080
:203740006F2801D1082600E00A262846194600F055F8AA68002A09D102460A4306D1287896
:20376000000749D52B7B0020024612E02B7B642B03D1642300290BD504E0692B08D1002911
:2037800006D5692301223A60002240428A4100E00A4600941146324600F0B0F8A968884290
:2037A00006DA401C21684A1E226030220A70F5E7287B582803D0782801D070280FD1297832
:2037C00009070CD5702800D1782021684A1E226008702068411E216030210170287B6F28A8
:2037E0000AD12878000707D520684178302903D0411E216030210170F8BDC04610B5037B5E
:20380000702B05D10868021D0A60006800226FE00068384A024001204403A24222D0402A91
:2038200020D00402A24230D04402A24246D0C402A2422AD00403A24214D0202A12D10022AC
:203840001C46643C142C06D8A0402B4C204204D1212420423ED1582B49D10868031D0B606C
:20386000008845E000221C46643C142C06D8A040214C204204D1212420422BD1582B36D1A8
:203880000868031D0B60006832E01A46643A142A06D89040184A104206D12122104203D1D5
:2038A0000020582B024623D10868C21D072082431046083008601068526819E000221C4649
:2038C000643C142C0CD8A0400B4C20420AD12124204205D00868021D0A600068C21707E013
:2038E000582B04D10868031D0B60007800E01046114610BD603F000000081200FEB50192A4
:203900000D460646582B01D0174800E015480090089802903046284305D1029A1068411E2C
:20392000116030210170019C3046284313D030462946224600F01AF807460D46224605F0A7
:2039400013FD301A0099085C029B19684A1E1A6008703E46E8E70298006805F0ECFD401E07
:20396000FEBDC0462CB000003DB0000080B5102A06D0082A09D1C0084A078018C90880BDAD
:2039800000090A078018090980BD002904D1114605F096FA002180BD002305F091FD80BD0B
:2039A000F0B591B0109103A90DC1002B00D16EE2169F0598411E079179080291801E01902E
:2039C000002106910F9707E0002006900899491C0598814200D15AE2C8B20A460799C9B294
:2039E0008142089201D1012132E00198801AC1B2AB224A43520A03235343C01A401CC2B2A2
:203A0000032A00D10020022901D201210EE00899C943059BC9180C1A00230121E4B27D25A9
:203A2000ED006943DB1CDDB2A542F8D1032A0FD0002201231343DCB2C3B29C4206D06424D0
:203A40006143921CD4B29C42F3D101E00A204143049805F035FA0A2105F032FA0991069819
:203A600000280CD107980899884205DD0998002800D10CE101200690002F03D1A7E70899E5
:203A8000002FA4D0084602994843039940180C9010200999014309910022109B07E00C9877
:203AA000401C0C90109B0A9A521CBA428ED00C2F0A9203D009980001F74903E00C200999BA
:203AC0004843F4490818801804780C98C0B20E9000200B9001460D910C9840B201270028B0
:203AE0003E4600D40B9ED9B23F2900D80B9F62B23E43002A10D4002E0F9F1ED1C9080722E8
:203B0000511A9A4301259540C9B20E9AD200E34EB218565CAE430FE0002E0F9F0DD1C90855
:203B20000722511A9A4301259540C9B20E9AD200DA4EB218565C2E435654591CCEB2109AC6
:203B4000B21ABA42ABD00125002200282F4600D417463F2E00D815462F4362060FD4002F80
:203B60001DD1F2080725AA1A8D430121A940D2B20E9DED00C94E7519AE5C8E430EE0002FD9
:203B80000DD1F2080725AA1A8D430121A940D2B20E9DED00C14E7519AE5C0E43AE54991CB7
:203BA000CEB2109AB21A0F9FBA4200D177E70125002200282F4600D417463F2E00D8154680
:203BC0002F43A2060FD4002F1DD1F2080725AA1A8D430121A940D2B20E9DED00AF4E75195F
:203BE000AE5C8E430EE0002F0DD1F2080725AA1A8D430121A940D2B20E9DED00A74E75198B
:203C0000AE5C0E43AE54D91CCEB2109AB21A0F9FBA4200D143E7012500220028284600D405
:203C200010463F2E00D815462843E2060FD400281DD1F0080722101A8A4301219140C0B2C5
:203C40000E9AD200954DAA18155C8D430EE000280DD1F0080722101A8A4301219140C0B294
:203C60000E9AD2008D4DAA18155C0D4315541B1DD8B21099401AB8420D9900D10FE70320B5
:203C800008432401091D072800D224E70BE7002F00D1F9E0084602994843039940180C90B3
:203CA0000021109A08E00C98401C0C90109A0A99491CB94200D187E60C2F764800D0764843
:203CC0000A91435C0C98C0B20E9000200B9001460D910C9840B201240028264600D40B9E8A
:203CE000D1B23F2900D80B9C5DB22643002D0FD4002E1DD1C9080724611A94430125A5405D
:203D0000C9B20E9CE400654E3419665CAE430EE0002E0DD1C9080724611A94430125A54094
:203D2000C9B20E9CE4005D4E3419665C2E436654511CCEB2109C341BBC42B4D001270025DE
:203D400000283C4600D42C463F2E00D82F463C435D0610D4002C0F9F1ED1F40807252C1BBB
:203D60008D430121A940E4B20E9DED004B4E75192E5D8E430FE0002C0F9F0DD1F4080725E8
:203D80002C1B8D430121A940E4B20E9DED00434E75192E5D0E432E55911CCEB2109C341B2D
:203DA000BC4200D17FE70127002500283C4600D42C463F2E00D82F463C439D0610D4002CA5
:203DC0000F9F1ED1F40807252C1B8D430121A940E4B20E9DED00314E75192E5D8E430FE076
:203DE000002C0F9F0DD1F40807252C1B8D430121A940E4B20E9DED00284E75192E5D0E43B3
:203E00002E55D11CCEB2109C341BBC4200D14AE7012400250028204600D428463F2E00D858
:203E20002C462043DC060FD400281DD1F0080724201A8C430121A140C0B20E9CE400174D3F
:203E40002C19255C8D430EE000280DD1F0080724201A8C430121A140C0B20E9CE4000F4D4D
:203E60002C19255C0D432554121DD0B21099401AB8420D9900D116E7032008431B01091DE1
:203E8000072800D224E712E7002006909FE511B0F0BDC046F6A7000006A2000000002020EA
:203EA000F0B58BB005920C4607460026F043079008AA012010705670DD4903C90B78817C71
:203EC000DC48C568C8200690009058000223A847002800D0FAE00494D64D6969069C2046B0
:203EE000884708AA1670D24903C90B78C17BED68009458000123A847002800D0E6E003966A
:203F0000CB4903C90A784179CA4EF56806980090500008AA0123A847002800D0D6E0C44912
:203F200003C90A78817CF56806980090500008AA0123A847002800D0C8E0BD4903C90A78A2
:203F4000C17DF56806980090500008AA0123A847002800D0BAE0B64903C90A780179F568CD
:203F600006980090500008AA0123A847002800D0ACE008AA0C201070AD4903C90B7801795D
:203F8000F5680698009058000123A847002800D09CE071690F208847A549886A407A08AA93
:203FA000107003C90B788178F5680698009058000123A847002800D088E09D49886A007A91
:203FC00008AA107003C90B784178F5680698009058000123A847002878D1954EB06A807A49
:203FE0000599002901D0E021084308AA107003CE0B7881798F48C5680698009058000123AF
:20400000A847002862D10598002806D08848806AC17A1F20C043084300E0182008AA1070EF
:20402000834903C90B78C1798248C5680698009058000123A847002848D10598002803D0C2
:204040007C484169C820884708AA40201070784903C90B7801797748C568069800905800AD
:204060000123A847002831D108AA78201070704903C90B7841796F48C5680698009058000D
:204080000123A847002821D16A4D69693220884708AA03981070664903C90B784179ED686F
:2040A00006980090580001230293A84700280DD15F4903C90A78817A5E4805690698009099
:2040C000500008AA0223A847002802D007980BB0F0BD08A8008840BA57494143C80C394620
:2040E000039A3A607A60BA6004990A604A608A60C0B20590002838D04D4903C90A78C17AA4
:204100004C48056906980090500008AA0C23A8470028DBD1089908AB5A88099CC9BA049881
:20412000056869180160D1BA426851184160E1BA826851188160D9880A9A5B89C8BA3D4634
:20414000396808183860D1BA7A6851180C467960D9BABA6851180E46B9600399491C0391E5
:20416000C9B2059A9142C7D302E0394651CF0C3FC117020C090489180004832207920025F1
:204180002B4605F093F9059A2B4605F08FF901973860E017210C000441182004079F3A46A5
:2041A0002B4605F083F9059C22462B4605F07EF901994860F017310C0004411830043A46A0
:2041C0002E462B4605F072F922462B4605F06EF901998860049D2868C117C20E490189181F
:2041E00040012246334605F061F928606868C117C20E4901891840012246334605F056F9FD
:204200006860A868C117C20E49018918400122463546334605F04AF9002802DC02990904B0
:2042200000E0064908180499886028460BB0F0BD2006202070062020ABAA00000000FFFF65
:20424000F0B589B00F4605460120C1073E468E43B14886420BD3D1483018284300D190E0F6
:2042600005F0A8F921210160CD49002550E1AB48864212D8C64AC74B2846394601F085FF70
:204280000022A54B04F03EFC002800D186E0C248864200D382E039463AE102910897002488
:2042A0009D4920462A46334601F06AFF9C4B224603F048F905460F469A4A9B4B03F042F954
:2042C0009A4A9B4B01F061FF05F047F9994A9A4B01F05BFF05F041F9984A994B01F055FF41
:2042E00005F03BF9974A984B01F04FFF05F035F9964A974B01F049FF05F02FF90690079129
:20430000944A954B05F072F9944A954B01F03DFF05F023F9934A944B01F037FF05F01DF995
:20432000924A934B01F031FF05F017F922467A4B01F02BFF039004912846394602F068F9ED
:2043400005900C468B48864200D283E005F01CF902460B46059D2846214603F0F3F82A463E
:2043600005F050F902460B4601F00FFF824A864B01F00BFF02460B468148844901F000FFB0
:20438000C0E07D4A7D4B05F031F904460E467C4A7E4B05F02BF92246334657E02846394684
:2043A0002A463B4603F0CEF8064608970F465D4A5D4B03F0C7F85D4A5D4B01F0E6FE05F0F9
:2043C000DEF85C4A5C4B01F0E0FE05F0D8F85B4A5B4B01F0DAFE05F0D2F85A4A5A4B01F019
:2043E000D4FE05F0CCF8594A594B01F0CEFE05F0C6F804460791574A574B3046394603F06E
:20440000A1F8564A564B01F0C0FE05F0B8F8554A554B01F0BAFE05F0B2F8544A544B01F0B9
:20442000B4FE05F0ACF800223B4B01F0AEFE02460B462046079902F009FC02460B4628464F
:20444000089C214603F07EF82A46234601F09DFE05465DE000263046214632460196234680
:2044600003F070F802460B462846394601F088FE00900F46059D28462146324605F0C2F861
:2044800002460B460098394602F0E0FB06460F4605F07AF807900691284621462A4605F02F
:2044A000B1F8059004913046394632463B4601F06CFE02460B463048304901F061FE0546BB
:2044C0000F4605980499079A069B03F03BF82A463B4601F055FE05460F46019821460246C8
:2044E00005F090F802460B46254C264E2046314601F046FE2A463B4601F042FE22463346AC
:2045000001F043FE05460898002801DC02984140284609B0F0BDC0460000F03FFFFFDF3F39
:204520000000E03F09F7FD0DE13D023F88B20175E0EF493F3B8F68B52882A4BF5544880EC9
:2045400055C1C93F7D6FEB0312D6D4BF555555555555C53F82922EB1C5B8B33F59018D1B82
:204560006C06E6BFC88A599CE52A00404B2D8A1C273A03C03333EF3F075C143326A6913C75
:20458000182D4454FB21E93F26A691BCFB21F93F9C7500883CE4377E0000503E000010C0C1
:2045A0000000F87F84B004F05DFEFBF789FDFDF7D7FBB34A00200146FCF76AFD00F0ECFE2B
:2045C000B0480068804702F0DBF801F00DFDAE4803F07AFCAD480168012319430160AC4862
:2045E000022101600160AB4A116011601904016011600393D8031060A74803F065FC04F0F8
:2046000049FEA64803F060FC02E00A2001F0CAF803988102A24804F095FFA248006800284D
:20462000A14A00D0A14A002528462946FCF730FD102128469E4AFCF72BFD9E48C469204697
:20464000294604F073FA00280ED020469B4903F045FF3F21090603F0CCF804F081FD054620
:204660000920C14328460BE02046934903F036FF3F21090603F0BDF804F072FD05460A215A
:2046800004F00AFB06460A21284604F005FB0D460C27009710240423204621463246FFF795
:2046A0007FF9039E009630202E2221463B4601F0F5FE02970097382021462A463346FFF711
:2046C0006FF90025202128467D4AFCF7E1FC7948846920460195294604F028FA00280ED0D2
:2046E0002046764903F0FAFE3F21090603F081F804F036FD06460920C14330460BE0204668
:204700006D4903F0EBFE3F21090603F072F804F027FD06460A2104F0BFFA04460A21304614
:2047200004F0BAFA0E46029D009510202027042339462246FFF734F9039C009430202E22CE
:2047400039462B4601F0AAFE00953820394632462346FFF725F95B49087800285A4802D0AF
:20476000019A02700A70007852490C6A00280AD10021204604F0D0F9002804D153480460E6
:2047800003985149087051480168204603F02CF804460025294604F0C9F9074620464C4911
:2047A00003F027F80646002F00D126463046484904F0D0F904463046464903F01AF8002CEB
:2047C00000D0064630212846434AFCF761FC3046294604F0ABF90028019530460DD0374913
:2047E00003F07CFE3F21090603F003F804F0B8FC06460920C14330460AE02F4903F06EFE97
:204800003F21090602F0F5FF04F0AAFC06460A2104F042FA04460A21304604F03DFA0E4698
:20482000029D009510203027042339462246FFF7B7F8039C00942E22384639462B4601F028
:204840002DFE00953820394632462346FFF7A8F800F0A2FD322004F09FFC204A1088401C7C
:2048600081B21080322900D2CFE61C480199018002F072FA01461A4804F0E0F9C5E6C0468F
:204880007EB00000700620204EB000000438864080E200E000E100E05FB000006FB0000003
:2048A0000000202088062020BCB000006AAC0000D0B000004C06202000002041000020C114
:2048C000CAB00000C8062020C7062020B80620200000B4430000B4C3CDB00000BE06202056
:2048E0008DB00000F0B587B005460F460122D0070E468643924886420DD3B448864203D8C7
:20490000002D3FD086423DD1284639462A463B4601F03BFCE2E08B488642039112D8914AC9
:20492000914B2846394601F030FC00248B4B224604F0E8F8E1430291002869D0B00DF92865
:2049400066D2CDE08048864220D8854886423FD8284631462A46334601F017FC00277C4B7E
:204960003A4601F012FC044628460D4601218B07314602973A4601F008FC02460B46204675
:20498000294636E0002920DC924F1FE06F48864234D800246F4B284604F01CFE2A460546ED
:2049A0000F466D4B10463146224602F0CBFD6B4B224601F0EAFB02460B462846394602F08F
:2049C00045F905460F46022021E0814F824D87E0029200245E4B284604F0FCFD2A46054659
:2049E0000F465E4B104604F0F5FD02460B462846394602F02BF905460F4609E0002054499B
:204A00002A46334602F022F905460F46032002900695284639462A463B4602F093FD0590BB
:204A2000049102460B4602F08DFD04460D464F4A4F4B02F087FD4F4A4F4B01F0A6FB04F0CD
:204A400099FD4E4A4E4B01F0A0FB04F093FD4D4A4D4B01F09AFB04F08DFD4C4A4C4B01F02E
:204A600094FB04F087FD4B4A4B4B01F08EFB02460B460598049902F065FD04900591474AA8
:204A8000474B2046294602F05DFD464A464B01F07CFB04F06FFD454A454B01F076FB04F005
:204AA00069FD444A444B01F070FB04F063FD434A434B01F06AFB04F05DFD224A964213D8D5
:204AC000049A059B01F061FB02460B4604F06EFD02460B462046394601F052FB05460F46F7
:204AE0002846394607B0F0BD029AD400354A1319125902925A680192049A059B01F045FB87
:204B000002460B463048011906594D6804F04EFD32462B4601F034FB22463B4601F030FB09
:204B200002460B460298019901F02AFB05460F4603980028D4D50120C0074740D0E7C0465A
:204B400000001044FFFFDB3FFFFFF23FFF7F03400000F0BF0000F8BF0000F83F0000F03F2D
:204B6000FFFFE53F9C7500883CE4377E11DA22E33AAD903FEB0D76244B7BA93F513DD0A0C1
:204B8000660DB13F6E204CC5CD45B73FFF8300922449C23F0D5555555555D53F2F6C6A2C8E
:204BA00044B4A2BF9AFDDE522DDEADBF6D9A74AFF2B0B3BF711623FEC671BCBFC4EB9899E6
:204BC0009999C9BFC0AD0000E0AD00000000F07FFB21F93FFB21F9BF182D4454F0B58DB0CB
:204BE000044607AF022001903870CA207870E320B8700920F870682004213A4603F03CFD73
:204C0000A32038704026254626405C21C9433F23002E0A4600D0DA4300930124002E0B4665
:204C200001D03723DB43029424020596002E0E4601D03D26F6437A70BB70FE702646803640
:204C40002E400A4601D03B22D243002E0B4601D03323DB430696002E01D03921C9439726D1
:204C60003A717B71B971F871387278727D480F300A213A4603F000FD032027212840049070
:204C8000039101D0202000E0C843F600387075481E3002993A4603F0EFFC2F46A80606D4E5
:204CA0000AAAC720107272480B90724805E00AAA5D2010726C480B906C480A9009213046F3
:204CC00003F0DAFC069D002D21D03C4001D04D2000E04F20C043002C01D0742100E07F212C
:204CE000C943002C01D0492200E04B22D343002C01D0642200E06F22D44307AA10705170E0
:204D00009370D47057480A30042103F0B5FC8B200001F90704D107AAD821117001214AE0B2
:204D200007AAF82111700126314603F0A5FC0720FA2101F0D1FD0AAA009810702920C5001B
:204D40002846314603F098FC0AAA00241470E81D314603F091FC0AAA1470142050702846F5
:204D60009630019E314603F087FC0AAA14706420507028469230314603F07EFC0AAA147019
:204D80008E205070F92090709020D07028461430042103F071FC0AAA1470082050702846D7
:204DA0001230314603F068FC0AAA1470567010352846069D314603F05FFC059CB8070398CF
:204DC00000D52620C04307AA10702B48012103F053FC780704D429480A9004210AAA09E089
:204DE0000AAAC0201070C2205070C4209070C620D07004211B4803F03FFC00F057FFF806F9
:204E000006D41F480A901748801D04210AAA0BE00AAA2020107028205070302090703820D3
:204E2000D0701048801D042103F026FC00F03EFF082038431349088000F038FF002C00D02C
:204E40000624002D00D0A41D1420074201D0102004430498002800D0241D0B4804700020E9
:204E60000DB0F0BD980A0000B4980D35B8AAB38DB088C3C5B8AAAAAA3D0700008B8B8B8B10
:204E8000A3A3A3A3C0062020C6062020F0B585B0A34EA44AA44F0120440604900105A34DD3
:204EA00010681F231B0698431060032042040020039104F09DFA9948076042273068204279
:204EC00000D083E0284604F043FB306820427DD1284604F03DFB3068204277D1284604F079
:204EE00037FB3068204271D1284604F031FB306820426BD1284604F02BFB3068204265D1C8
:204F0000284604F025FB306820425FD1284604F01FFB3068204259D1284604F019FB306837
:204F2000204253D1284604F013FB306820424DD1284604F00DFB3068204247D1284604F085
:204F400007FB3068204241D1284604F001FB306820423BD1284604F0FBFA3068204235D188
:204F6000284604F0F5FA306820422FD1284604F0EFFA3068204229D1284604F0E9FA3068CA
:204F8000204223D1284604F0E3FA306820421DD1284604F0DDFA3068204217D1284604F017
:204FA000D7FA3068204211D1284604F0D1FA306820420BD1284604F0CBFA3068204205D14A
:204FC000284604F0C5FA163F00D077E75548806902900498020400200190039904F008FA30
:204FE0004E485149016042273068204200D083E0284604F0ADFA306820427DD1284604F0D7
:20500000A7FA3068204277D1284604F0A1FA3068204271D1284604F09BFA306820426BD147
:20502000284604F095FA3068204265D1284604F08FFA306820425FD1284604F089FA3068BD
:20504000204259D1284604F083FA3068204253D1284604F07DFA306820424DD1284604F074
:2050600077FA3068204247D1284604F071FA3068204241D1284604F06BFA306820423BD107
:20508000284604F065FA3068204235D1284604F05FFA306820422FD1284604F059FA30684D
:2050A000204229D1284604F053FA3068204223D1284604F04DFA306820421DD1284604F004
:2050C00047FA3068204217D1284604F041FA3068204211D1284604F03BFA306820420BD1C7
:2050E000284604F035FA3068204205D1284604F02FFA163F00D077E70A488169173502981F
:205100004543284603F0DCFE094940180F2801D301980490049805B0F0BDC0462C030B406C
:2051200004020B4038010B400100000ED103000043F6FFFFF0B58BB00027FC43282800D911
:2051400023E100280AD0924B2326995D012902943CD0997C002918D0322217E08C4D2326CE
:20516000A85D002800D1FDE0A87C411E02468A41510004AA11702221695C002900D1E1E07B
:20518000002800D1DAE07D20D9E03022019005A802702220185C002807D0002901D04D20E8
:2051A00000E04F20C04305A9087003CB0A78017D7848C468C8200090500005AA01252B46AF
:2051C000A047734B0028019800D19D5503A920220A7001281DD103A800214170987A002870
:2051E00075D006A806210170D87A06286FD003CB0A7881786748C468C8200090500006AAC9
:20520000083B1D460123A0472B4600285FD106985CE005281DD803A801214170987A002860
:2052200055D007A806210170D87A06284FD003CB0A7881785748C468C8200090500007AAD6
:20524000083B1D460123A0472B4600283FD107983CE014281DD803A802214170987A00284F
:2052600035D008A805210170D87A05282FD003CB0A7881784748C468C8200090500008AAE6
:20528000083B1D460123A0472B4600281FD108981CE003A803214170987A002817D009A8E6
:2052A00004210170D87A042811D003CB0A7881783848C468C8200090500009AA083B1D46E3
:2052C0000123A0472B46002801D10998D87203AA50788001C01D507003CB083B1D460B78E3
:2052E000817C2C48C468C826009658000223A0470028029C49D10820A8722F7301232B75A1
:205300002420285C00283C463FD100242C74687C00283AD10AAA137003CD27460C78C17BFC
:205320001C48C0680290009660003C46029E083DB047002829D10A98687426E07F20C043B3
:2053400004A9087003CD0A78017D1248C768C8200090500004AA0123083DB847002801D1F7
:205360000020A8550720000203AA108003CD0B78817C0848C668C820009058000223083DA2
:20538000B047002801D100242C7520460BB0F0BD2006202070062020F0B584B00121C807A3
:2053A0007C4C7D4E0B0700257C4A0192CA03039207E0009D6D1C0199491C0191082D00D1C4
:2053C000E6E0226133603246103A10601360336030601360336010601360336010601360CA
:2053E0003360306013603360042D314600D31146086013603360A907314600D51146086089
:20540000136033600095E907314600D01146086013600399216021613360306013603360C0
:205420003060136033603060136033603060136033603060136033603060136033603060EE
:205440001360336030601360216021613360306013603360306013603360306013603360EB
:20546000106013603360306013603360306013603360306013603360306013600A46216020
:205480008027019D07E008601360424C039A22601035BF1E8DD0029700216956226033604B
:2054A0003246103A0029344600DA14462060136033604C06344600D514462060136033604C
:2054C0008C06344600D51446206013603360CC06344600D514462060136033600C0734467D
:2054E00000D514462060136033604C07344600D514462060136033608C07344600D5144639
:20550000206013603360C907314600D0114608601360204C039F2760082169562760336025
:205520000029344600DA14462060136033604C06344600D514462060136033608C06344681
:2055400000D51446206013603360CC06344600D514462060136033600C07344600D51446D9
:205560002060136033604C07344600D514462060136033608C07344600D5144620601360F4
:205580003360C9073146029F00D17CE711467AE704B0F0BD90320A40A0120A4000002020FB
:2055A000F0B58BB009A80190724C00947248734905AA0AAB00F0D6F92088C00500D4D6E0E7
:2055C000059803F01BFD6121CD05294602F086FF04466B480460069803F010FD294602F089
:2055E0007DFF064667480660079803F007FD294602F074FF074664480760089803F0FEFC77
:20560000294602F06BFF054660480560032081070491304602F062FF06462046214602F053
:20562000E8F8394602F05AFF04463046294602F055FF214602F0DDF803F062FCFEF700FED9
:20564000534A544B01F07EFF03F092F9524908604D4804682046214602F0CBF807460290BD
:205660004A480068039046480068014602F0C1F844490E68314602F031FF054638460399B4
:2056800002F02CFF294602F0B4F803F039FC074603913046049902F021FF05462046029966
:2056A00002F01CFF04462846314602F017FF214602F09AF87F21C90502F09BF803F020FCB9
:2056C00002460B463846039900F024FE304A314B01F038FF03F04CF93049086029480568F0
:2056E0002948076826480468284801680491204602F0F4FE06462846394602F0EFFE3146A9
:2057000002F077F8014602F074F803F0F9FB064603912846294602F0E1FE054620462146F6
:2057200002F0DCFE294602F064F804463846394602F0D4FE0146204602F056F80446049802
:20574000014602F0CBFE0146204602F04DF803F0D7FB02460B463046039900F0DBFD0C4AD5
:205760000C4B01F0EFFE03F003F90D4908600BB0F0BDC0462C052020E4042020DE0420201E
:20578000A8062020AC062020B0062020B40620206666666666A64C40100520200C05202063
:2057A00014052020F0B581B06D49884200D308466949502343430024009405E0641D7D20B3
:2057C000C000844200D1C5E00A6864481618009F02E0281A98421ED20868904200D90127B1
:2057E0003D06154600D03546281A984213D20868904200D901273D06154600D03546281A51
:20580000984208D20868904200D901273D061546DFD03546DDE70D6850482E18002702E0A9
:20582000101A98421ED20868A84200D901273A062A4600D03246101A984213D20868A842DE
:2058400000D901273A062A4600D03246101A984208D20868A84200D901273A062A46DFD0B7
:205860003246DDE70D683D482E18002702E0101A98421ED20868A84200D901273A062A46A4
:2058800000D03246101A984213D20868A84200D901273A062A4600D03246101A984208D2A6
:2058A0000868A84200D901273A062A46DFD03246DDE70D6829482E18002702E0101A9842B9
:2058C0001ED20868A84200D901273A062A4600D03246101A984213D20868A84200D9012741
:2058E0003A062A4600D03246101A984208D20868A84200D901273A062A46DFD03246DDE7DC
:205900000D6816482E18002703E0101A984200D354E70868A84200D901273A062A4600D077
:205920003246101A984200D348E70868A84200D901273A062A4600D03246101A984200D3BF
:205940003CE70868A84200D901273A062A46DCD03246DAE701B0F0BD18E000E0FFFFFF0001
:2059600033330300F0B58FB0049315460C460590149F159A0026F04306903E805F480078D3
:2059800007A902F007F8002802D006980FB0F0BD01940397012420020290594803881420FA
:2059A0000342059F48D02A4600930798000607AE717809040D18B0780002F178401840192A
:2059C0001746106008980006717909040818B1790902F27989180918796009990906727A65
:2059E00012045118B27A1202F37AD2185218BA600A9A1206737B1B049A18B37B1B02F67BD6
:205A00009B199B18FB602B140014091412145B43404349435243181840188018F1210906AB
:205A200040186106884263D803990888029A104308801026009B059F580602D43246039C3F
:205A400018E007A88119805D00024A788018019C208088780002CA78801860800879000250
:205A600049794018A08006223243039C2088082101432180029D80352B42049E17D007A801
:205A80008118805C00021D464B78C018388088780002CB78C0182B4678800879000249790E
:205AA0004018B880921D2088702101432180980718D007A88518EC786878C1070AD0114976
:205AC0000A68002A06D007202040411CA006400F90476878000705D50B480168002901D02D
:205AE000A0098847304603F002F900200FB0F0BD00F0DCF800200399088046E7C6062020FD
:205B0000C0062020A0062020A4062020F0B589B00024E043059006AA802010705D4F03CFA7
:205B20000B78817C5C48C568C826009658000123083FA847002821D1574D696964208847FB
:205B400006AA147003CF0B78817CE86804900096580001252B46049FB84700280ED1049514
:205B600003944C4903C90A78817D4B4805690096500006AA0623A847002802D0059809B0AE
:205B8000F0BD06A84179C907490FC278D207920F51184078049C2040091851D001293E4FFA
:205BA00005D00229039B69D10296194601E00296039B384EF174304608303A49F181FF2151
:205BC0003174B1740599B160347321047361B361F3613162037743778377C37708AA18205F
:205BE000107003CE0B788179FD680298009058002346083EA8470028C0D108A80078C008A9
:205C00003072022002F08EFB0028B7D12A2002F0ABFC0028B2D1322001F0AAFA0028ADD17A
:205C2000002001F01FFF0028A8D10025284600F0EDFE0028A2D1284601F018FB05959DE7FB
:205C4000144903C90A78C178134805690096500006AA01273B46A84700288FD1029606A89B
:205C600001780F20084004280CD00028039B1946094F9ED10A4802F027F97FE70A4802F032
:205C8000DDFF7BE73D46054802F01EF9024F039B29468EE72006202070062020C4AF00008B
:205CA00071AD0000FFFF000084AE0000F0B585B00026F043634DA97A002900D1C0E0039063
:205CC00004AA167003CD0B78C17B5F48C468C827009758000123083DA047002819D1029656
:205CE00003CD0A784179584EF4680097500004AA0123083DA04700280BD103CD0A780179E1
:205D0000F4680097500004AA0123083DA047002802D0039805B0F0BD2420285C002814D077
:205D200004AA0C20107003CD0B7801794648C468009758000123083DA0470028E9D13E46DD
:205D4000A87AC0074AD01F2049E004AA0420107003CD0B7801793C48C468009758000123F6
:205D6000083DA0470028D4D13E46AA7CA97A4020C907014600D06021002A334F00D00146D2
:205D800004AA117003CD0B780179FC683746009658000123083DA0470028BAD1687C411EF2
:205DA000884104AA107003CD0B78C17B264EF468009758000123083DA0470028A9D103CDDC
:205DC0000A784179F46800970835500001232A46A04700280398029E32D130E03F20C043B4
:205DE000194F04AA107003CD0B780179FC68009658000123083DA04700288AD1687C411ED8
:205E00008841400004AA107003CD0B78C17BFC68009658000123083DA047002800D078E7C3
:205E200004AA3446029E167003CD0B784179FD68009458000123A8470028039800D1304699
:205E400005B0F0BD2006202070062020F0B595B00E4607460220C043614D2524295D00296E
:205E600002D0801C15B0F0BD002E00D1A1E00492029403930590002F00D184E00022079648
:205E8000069790B20D903B1A102B00DB1023A87A002800D190E0110A14A80C9101704270C6
:205EA000D0B299B209910F18686841898F4200D982E000782968097E0F934A4BDE68C825B4
:205EC000009540000E9214AA0223B0470F9B0799434C002870D10A970D980E1803CC0A7874
:205EE000417D4048C0680D90DBB20B9500955000324608930D9F083CB84700285CD1A07A14
:205F000000280B9F5BD00C98C0B214A908700E984870606841890A9A8A4250D800782168B0
:205F2000097E304AD4680097400014AA0223A0472B49002843D103C90A78417D29480469E9
:205F40000097500010AA089BA047254D002836D109990029069F0FD00120401A10A9327848
:205F60000B789A4205D1491C761C441C00282046F5D19A421A4D2ED10E9A0F98121890B244
:205F8000B84200D27DE70499080A14AA1070517003CD0B78817E1348C468C820009058007A
:205FA0000223083DA04700280DD00598C01E15B0F0BD401C15B0F0BD059815B0F0BD059824
:205FC000401E15B0F0BD0120029968540398E884002015B0F0BD0598801E15B0F0BDC0462D
:205FE0002006202070062020F0B58BB05A4E02AC0027277059480569C8200090D020752184
:2060000001232246A847564801F05EFF2078682803D0032030604F487060FFF777FD002872
:2060200000D090E0782001F021F944424441002802D14B4801F048FF782001F013FD0028EB
:206040003D4603D1474801F03FFF2546C82001F08FF800283C4603D1434801F035FF2C46C0
:2060600003F0F0F900283D4603D1404801F02CFF2546AC2001F0F0F900283C4603D13C480E
:2060800001F022FF2C46FF207430FEF7A7FD00283D4603D1374801F017FF2546C82002F0D6
:2060A000D5FC002803D1344801F00EFF2F4608A805A9FCF79DFB072835D104A802F0BAFEB0
:2060C000089802F09BFF0146049C204602F006FA03F046F80890099802F090FF01462046BD
:2060E00002F0FCF903F03CF809900A9802F086FF0146204602F0F2F903F032F80A9008A8EF
:2061000001F032F903AC204603F07AF8208805994143059106994143069107994143079113
:2061200005A801F0C1FD012000F09CFE002803D0002F06D00BB0F0BD104801F0C5FE002FB5
:20614000F8D102F0A3F803203060024870600BB0F0BDC046010000E400030B4070062020C5
:20616000A4AF000018AF0000CFAE000000AE0000AAAE0000F4AE00005FAF00003CAF0000E7
:20618000FCB40124E407634002E0FCB40124E40708B41D03ED08D60D354356025F007F0D8B
:2061A00006D12C00344300D0AEE001B0FCBC7047A408254307242402FF34A74205D1002070
:2061C000190D090501B0FCBC7047002B03D50024A61BAC4125000B03DB08C20D1343420217
:2061E0004800400D07D11C00144300D08CE00EBC1000F0BC704701246407234307242402FF
:20620000FF34A04205D10020090D090501B0FCBC7047002903D50024A21A9C412300C11B72
:2062200008D51C002B0025001400320026000024611A3800362925D502B4393949420C00BA
:20624000203C03D22F008F40374301E03700A740002F01D040210E4302BC20290BD50029D4
:206260000ED04C42203420B4A5402C0020BC0D41CE40361904E000292E000D4120390E41C1
:2062800092196B411C0014433ED00024002B04D5012400218A1A99410B00401E52005B41E3
:2062A000FBD50121890215000D400CD0521800277B4101D3401C0BE00721C90115000D4067
:2062C00001D189008A43072109028A4352005B41801C19DD07210902FF31884209D30EBC43
:2062E0000020C90F0902FF31C900C91D0905F0BC7047190B00050143E40721431805120B55
:20630000104301B0FCBC70470021002001B0FCBC7047FEE7F0B585B01E4605460292039014
:20632000504B514F04963E40501E1446844134439C4207D80F40681E2C4684413C4349482D
:20634000844208D90398029A049BFFF71EFF0C46214605B0F0BD4548049B181810431AD0F9
:206360000C46C90FD80F4000019141183D4316D032431CD03B48864217D187421DD1424CA2
:206380003C48C0467944097949008F4401023B60DEE7414CDCE70398FEF7A4FAD7E702294E
:2063A0000398D5D3032918D015E0874218D10120C00704402E48241810E000242046C04681
:2063C0007944097949008F4401020608C0E700200121CC07BCE72A4C00E02A4C2548B7E71B
:2063E000B81B00153C2803DD214C2248019918E0002B09D500253B22D243904204DA28464A
:206400002C460EE0234C23E003980D462146029A00F01CFC0122D2079143FEF763FA0C463D
:206420002946002994D0022905D0012912D10121C9074C408CE7104A104B2146FFF7A5FEAD
:2064400002460B460B480E49FFF79AFE7FE70F4C0F487DE7084A094B2146FFF796FE054A09
:20646000084B72E70000F07FFFFFFF7F000010C0FB21F93F182D4454075C143326A6A1BCB1
:20648000FB210940FB2109C0FB21E93F7CD902C0D221337F7CD90240FB21E9BFF0B58AB078
:2064A00008910590002B00D1AAE00F980290203AD0B2009000240899069308E00598401C44
:2064C00005900899019C641C9C4200D198E00C2B019403D0009800014B4A03E00C20009ACC
:2064E0005043484A10180019007809900598C0B203900020049004460794059840B2012733
:2065000000283E4600D4049ECCB23F2C00D8049F099A52B23E43002A12D4002E24D1E308AF
:206520000725EB1A8D430124AC40029A002ADEB212D0039AD300354AD3189D5DA54311E064
:20654000002E11D1E3080725EB1A8D430124AC40029A002ADEB2ECD0039AD3002B4AD3184C
:206560009D5D25439D55069B4C1CE7B2089ABA1A9A42A3D0012200250028104600D4284658
:206580003F2F164600D82E463043099B5D0612D4002823D1F80807252E1AA5430120A84004
:2065A000029B002BF4B212D0039BDD00174B5D192E5D864311E0002810D1F80807252E1A76
:2065C000A5430120A840029B002BF4B2ECD0039BDD000E4B5D192E5D06432E55891CC8B2E0
:2065E000089BC01A069B9842079C00D166E72243099880000990A41C072A00D27CE761E755
:206600000AB0F0BDF6A7000006A2000000002020F0B585B00D4604465448014081420CD19A
:206620002046294622462B4600F08CFF22462B46FFF7ABFD04460D4693E04D4B002D75DD93
:20664000012004900105280D06D10020002D05D11538E50A6405F9E72E460DE000220D42F9
:2066600002D16D00521CFAE7801A401C2026B71A2646FE402E4394403E4A8218481E304097
:2066800008430092D10703D0E10F400040186400E10F4000461800250498410501956400F7
:2066A000002911D04A19B71A304600DB3846B24200DC5518B24202DC019A521801924000E6
:2066C000E20F86184908EAE75F1C00221346002F23D0D019AE4216DD039300230028049AA6
:2066E00000D41A46C11902910029049900DA1946761B844200D2761E039B0A40AD18241A52
:20670000DB19029A03E002D18442E5D23546E00F71000E1864007F08D9E7344313D0581C3C
:20672000019A12D001201840C31810E028461840204316D0002D83D502F03CFF2121016034
:206740000E4D00240DE0019A01E0521C002350105908D20754180099490809050818064953
:2067600045182046294605B0F0BDC0460000F07FFFFFFF7F01FCFFFF0000E03F0000F87F03
:20678000F0B58BB0504E3569C82700974F4CD020752101232246A8472078682804D04C482B
:2067A000032101604B49416034690097D0206B2105AA0123A04700280BD105AA1078F82161
:2067C0000140881C1070F4680097D0206B210123A04734690097D0201B2106AA0123A047BF
:2067E00000280AD106981821014306AA1170F4680097D0201B210123A04734690097D020FC
:206800001C2107AA0123A04700280AD107AA1078E72101401170F4680097D0201C21012335
:20682000A047306901900097D02004906B210291039708AF01253A462B46019CA047387871
:20684000BF2101403970F0680190039E0096049C204602993A462B46019FB8471A48006952
:20686000019000966A21029109AF20463A462B46019CA0473878DF21014039701248C06824
:2068800001900096049C204602993A462B46019FB8470D4800690290009637260AAF20463E
:2068A00031463A462B46029CA0473878FD21014039700548C46803980090049831463A46FC
:2068C0002B46A0470BB0F0BD70062020D004202000030B40010000E4F0B585B005460022B4
:2068E000D4431920800181426FD8072028406CD00192084602F0FCFC3F4901F0FFFE064665
:2069000003AF384602F062FC3878801E0121C84107285AD8394F8D21C905C04678440079DE
:20692000400087440E0352075252520B364F2320410606E0334F8B20C10502E0304F452033
