:200000000040202027300000972B0000972B00000000000000000000000000000000000085
:20002000000000000000000000000000972B00000000000000000000972B0000972B00007A
:20004000972B0000972B0000972B0000972B0000972B0000972B0000972B0000972B000090
:2000600000000000972B0000972B00000000000000000000972B0000972B0000972B0000B6
:20008000972B0000972B0000972B0000972B0000972B0000972B00000000000000000000D4
:2000A000972B0000972B00000000000000000000972B000000000000972B0000972B000076
:2000C000F0B593B00126B503FD4C2561782002F01FFB2560F00320613107FA4A11601346A7
:2000E000103B1196F6071E60196011601660196011601E60196011601660196011601E6003
:20010000196011601E60196011601E6019601160166019602060206111601E60196011605C
:200120001E60196011601660196011601E60196011601660196011601E6019601160166051
:20014000196011601E6019602060206111601660196011601E601960116016601960116024
:200160001E6019601160166019601160166019601160166019601160166019602060206107
:2001800011601E60196011601660196011601E60196011601660196011601E6019601160F6
:2001A0001660196011601660196011601660196020602061116016601960116016601960CF
:2001C00011601E60196011601E60196011601E60196011601E60196011601E6019601160A6
:2001E0001E6019602060206111601E60196011601E60196011601660196011601E6019606F
:2002000011601660196011601660196011601E60196011601E601960206020611160166066
:20022000196011601660196011601660196011601660196011601660196011601660196065
:200240001160166019601160166019602060206111601660196011601E601960116016602E
:20026000196011601660196011601660196011601660196011601660196011601660196025
:200280002060206111601E60196011601660196011601660196011601660196011601E60E6
:2002A000196011601E60196011601660196011601E601960206020611160166019601160C3
:2002C0001660196011601660196011601E60196011601660196011601E60196011601660B8
:2002E00019601160166019602060206111601660196011601660196011601E60196011608B
:2003000016601960116016601960116016601960116016601960116016601960206020616D
:2003200011601660196011601660196011601660196011601660196011601660196011606C
:200340001660196011601E6019601160166019602060206111601E6019601160166019601D
:2003600011601E601960116016601960116016601960116016601960116016601960116024
:200380001E6019602060206111601E60196011601E601960116016601960116016601960D5
:2003A0001160166019601160166019601160166019601160166019602060206111601E60CD
:2003C000196011601E60196011601660196011601E60196011601E601960116016601960AC
:2003E00011601E60196011601660196020602061116016601960116016601960116016608D
:20040000196011601E60196011601660196011601660196011601E60196011601660196073
:200420002060206111601E601960116016601960116016601960116016601960116016604C
:20044000196011601660196011601660196011601E6019602060206111601E601960116021
:200460001E60196011601E60196011601660196011601E60196011601E60196011601E60FE
:20048000196011601E6019602060206111601E60196011601E6019601160166019601160D9
:2004A0001E60196011601E60196011601660196011601660196011601E60196004E0C046CB
:2004C00090320A40A0120A402060206111601E60196011601E60196011601E60196011606A
:2004E0001E60196011601660196011601660196011601660196011601E601960206020617C
:2005000011601E60196011601E60196011601660196011601E60196011601E60196011606A
:200520001660196011601E60196011601E601960206020611160166019601160166019603B
:2005400011601E60196011601E60196011601660196011601660196011601660196011603A
:20056000166019602060206111601E60196011601660196011601E601960116016601960FB
:2005800011601660196011601E6019601160166019601160166019602060206111601E60E3
:2005A000196011601660196011601E60196011601660196011601660196011601E601960D2
:2005C00011601E6019601160166019602060206111601E60196011601660196011601E609B
:2005E000196011601660196011601E60196011601E60196011601E60196011601E60196082
:200600002060024C80200A9002E0C04600002020109011984002129020180F900320C001C2
:200620000D9021180E912046E0300C902046C0300B902346A0332646803625466035274677
:20064000403720462030002121702172217421762022A154017201740176402021543972E6
:2006600039743976602021542972297429760A982154317231743176A020215419721974FF
:200680001976C02021540B98017201740176E02021540C98017201740176119800022154DC
:2006A0002126F00021541120000121542325E80021540920400121542523D800215413209B
:2006C000000121542722D00021540520800121542920C00021541520000121542B20C000C7
:2006E00021540B20400121542D20C00021541720000121542F20C00021540D9821540E9831
:200700000172017401760D20400121543520C00021541B20000121543720C00021540720A9
:20072000800121543920C00021541D20000121543B20C00021540F20400121543D20C000F0
:2007400021541F20000121543F20C0002154109840380F9C00D05BE7069508930992024CDF
:2007600080200A9602E0C046000020201190FF27384682300D9022180E922046E1300C9090
:200780002046C1300F902046A1300B9026468136224661322346413320462130617061723B
:2007A000617461760A9D61550172017401764120109021541972197419766123E154117278
:2007C000117411768122A154317231743176A126A1550B98017201740176C12561550F9884
:2007E000017201740176E1200F9021540C9801720174017638460230215438460A30215430
:2008000038461230215438461A30215438462230215438462A302154384632302154384601
:200820003A30215438464230215438464A30215438465230215438465A3021543846623005
:20084000215438466A30215438467230215438467A3021540D9821540E9801720174017645
:200860003846A23021543846AA3021543846B23021543846BA3021543846C23021543846D1
:20088000CA3021543846D23021543846DA3021543846E23021543846EA3021543846F23045
:2008A00021543846FA302154129824181198403800D05BE7079311970495024D802003922E
:2008C000059601E0000020200E90049840000C902A180D922846E2300B902846C2300A9050
:2008E0002A46A2322E4682362C4662342B46423328462230A970A972A974A9762227E955E3
:20090000017201740176422029541972197419766220295421722174217682202954317272
:2009200031743176059EA2202954117211741176C22029540A98017201740176E22029541B
:200940000B980172017401760398400029548522500029548920400029548D2040002954F9
:200960009120400029549520400029549920400029549D204000295470002954A52358009A
:200980002954A92040002954AD2040002954B12040002954B52040002954B9204000295414
:2009A000BD20400029540C9829540D98017201740176D12040002954D52040002954D9201F
:2009C00040002954DD20400029540F9840002954E52460002954E92040002954ED20400043
:2009E0002954F12040002954F52040002954F92040002954FD204000295412982D180E9895
:200A0000403800D060E700940193029201488022119B01E0000020200E9284330C93C21803
:200A20000D920246E3320B920246C3320A920546A335064683360446633403464333024634
:200A40002332C170C172C174C176069FC15511721174117643220F928154197219741976A5
:200A600063228154217221742176119B83240155317231743176A32681552972297429764F
:200A8000C32541550A9A117211741176E327C1550B9A1172117411761A46043281541A4686
:200AA0000C3281541A46143281541A461C3281541A46243281541A462C3281541A46343241
:200AC00081541A463C3281541A46443281541A464C3281541A46543281541A465C328154C2
:200AE0001A46643281541A466C3281541A46743281541A467C3281540C9A81540D9A1172F5
:200B0000117411761A46A43281541A46AC3281541A46B43281541A46BC3281541A46C43217
:200B200081541A46CC3281541A46D43281541A46DC3281541A46E43281541A46EC32815491
:200B40001A46F43281541A46FC328154129A80180E9A403A00D05FE70397049505960694F3
:200B6000014E802002E0C046000020200E90079880000C9032180D923046E4300B90304681
:200B8000C4300A903746A437344684343246643233464433304624303171317331753177E1
:200BA0002425715501720174017644203154197219741976642031541172117411768420FB
:200BC0003154217221742176A4203154397239743976C42031540A98017201740176E42013
:200BE00031540B980172017401761098800031540F98800031544523980031544722900097
:200C000031544920800031544B20800031544D20800031544F208000315451208000315415
:200C20005320800031545520800031545720800031545920800031545B20800031545D20CB
:200C4000800031545F20800031540C9831540D980172017401766920800031546B20800045
:200C600031546D20800031546F208000315471208000315473208000315475208000315401
:200C80007720800031547920800031547B20800031547D20800031547F208000315412988A
:200CA00036180E98403800D060E70792F64A80200B93119B089F109086330E93D0180F90C6
:200CC0001046E5300D901046C5300C901646A536154685351446653413464533104625306A
:200CE0005171517351755177D1550172017401760B9811541972197419766520115421722F
:200D000021742176119B0298115429722974297601981154317231743176C52011540C984A
:200D2000017201740176009811540D9801720174017618460630115418460E3011541846FB
:200D40001630115418461E30115418462630115418462E30115418463630115418463E30A8
:200D6000115418464630115418464E30115418465630115418465E301154184666301154A1
:200D800018466E30115418467630115418467E3011540E9811540F980172017401761846A9
:200DA000A63011541846AE3011541846B63011541846BE3011541846C63011541846CE30E8
:200DC00011541846D63011541846DE3011541846E63011541846EE3011541846F630115471
:200DE0001846FE301154129812181098403800D061E7A54D80201090049840000E902A1808
:200E00000F922846E6300D902846C6300C902E46A6362F4686372C4666342B46463328462A
:200E20002630A971A973A975A9772622A95401720174017646202954197219741976662034
:200E40002954217221742176119A86202954397239743976A6202954317231743176C62069
:200E600029540C98017201740176E62029540D98017201740176069840002954872358000E
:200E800029548B20400029548F20400029549320400029549720400029549B2040002954A5
:200EA0009F2040002954059840002954A72460002954AB2040002954AF2040002954B320CD
:200EC00040002954B72040002954BB2040002954BF20400029540E9829540F9801720174DB
:200EE0000176D32040002954D72040002954DB2040002954DF20400029540398400029544B
:200F0000E72670002954EB2040002954EF2040002954F32040002954F72040002954FB2084
:200F2000400029545000295412982D181098403800D060E7544D8020089302940196109058
:200F4000104688300E902B180F9310320C92A8180D902846E7300B902846C7300A902F462F
:200F6000A7372C4687342B4667332A46473228462730E971E973E975E977099EA955017221
:200F8000017401760798295411721174117667202954197219741976089BE9542172217407
:200FA0002176029C119A2955397239743976C72029540A98017201740176019EA9550B9827
:200FC0000172017401761046083029540C9829540D98017210462030295410462830295420
:200FE00010463030295410463830295410464030295410464830295410465030295410464C
:20100000583029541046603029541046683029541046703029541046783029541046803009
:2010200029540E9829540F980172017401761046A83029541046B03029541046B8302954F1
:201040001046C03029541046C83029541046D03029541046D83029541046E030295410461B
:20106000E83029541046F03029541046F83029540648295412982D181098403800D05EE7FE
:2010800001F042FA13B0F0BD00002020FF010000F0B595B0054601921078002809D115B05C
:2010A000F0BD08350198411C4078002801910C99F5D0EAB27A2A00D900257A2A00D9103178
:2010C000CAB23B2A01D200F044FD80200C90014A02E0C04600002020139001200F904002D7
:2010E0001490101812900320C0011090111811911046E0300E901046C0300D901446A0341E
:2011000017468037164660361146403110462030002515701572157415762023D554057233
:2011200005740576402015540D720D740D76602015543572357435760C9815543D723D741E
:201140003D76A0201554257225742576C02015540D98057205740576E02015540E98057209
:20116000057405760F98000215542126F00015541120000115542324E00015540920400134
:2011800015542523D80015541320000115542721C80015540520800115542920C0001554C6
:2011A0001520000115542B20C00015540B20400115542D20C00015541720000115542F20E1
:2011C000C00015541098155411980572057405760D20400115543520C00015541B20000130
:2011E00015543720C00015540720800115543920C00015541D20000115543B20C000155448
:201200000F20400115543D20C00015541F20000115543F20C000155413984038129A00D09F
:201220005AE7079409930A918020014F089601E0000020201090FF20139082300E903918E9
:201240000F913846E1300D903846C1300C903E46A1363C468134394661313A4641323846A3
:2012600021307D707D727D747D76089BFD54057205740576412012903D54157215741576CF
:201280006122BD540D720D740D761399812011903D54257225742576A1243D553572357446
:2012A0003576C126BD550C98057205740576E123FD540D98057205740576084602303D5405
:2012C00008460A303D54084612303D5408461A303D54084622303D5408462A303D540846F3
:2012E00032303D5408463A303D54084642303D5408464A303D54084652303D5408465A30CF
:201300003D54084662303D5408466A303D54084672303D5408467A303D540E983D540F986A
:201320000572057405760846A2303D540846AA303D540846B2303D540846BA303D54084600
:20134000C2303D540846CA303D540846D2303D540846DA303D540846E2303D540846EA300E
:201360003D540846F2303D540846FA303D5414983F181098403800D05CE7089280200693C9
:20138000014B05940B9601E000002020109070000E9019180F911846E2300D901846C230CA
:2013A0000C901F46A2371C468234194662311A464232184622309D709D729D749D7622263D
:2013C0009D550B9E05720574057642201D5415721574157662201D540D720D740D76822081
:2013E0001D54257225742576A2201D543D723D743D76C2201D540C98057205740576E22007
:201400001D540D98057205740576119840001D54852148001D54892040001D548D2040004B
:201420001D54912040001D54952040001D54992040001D549D2040001D54059840001D544D
:20144000A52250001D54A92040001D54AD2040001D54B12040001D54B52040001D54B9202B
:2014600040001D54BD2040001D540E981D540F98057205740576D12040001D54D52040002D
:201480001D54D92040001D54DD2040001D54069840001D54E52460001D54E92040001D54A0
:2014A000ED2040001D54F12040001D54F52040001D54F92040001D54FD2040001D541498A2
:2014C0001B181098403800D060E702940392049180200149139F01E0000020201090384607
:2014E00084300E900A180F920846E3300D900846C3300C900846A3300B900C4683340B46E6
:2015000063330A46433208462330CD70CD72CD74CD76079E8D5505720574057643201190D9
:201520000D5415721574157663200D541D721D741D7683228D54257225742576A323CD54E0
:201540000B98057205740576C3240D550C98057205740576E3268D550D980572057405762A
:20156000384604300D5438460C300D54384614300D5438461C300D54384624300D5438463E
:201580002C300D54384634300D5438463C300D54384644300D5438464C300D543846543050
:2015A0000D5438465C300D54384664300D5438466C300D54384674300D5438467C300D5463
:2015C0000E980D540F980572057405763846A4300D543846AC300D543846B4300D54384643
:2015E000BC300D543846C4300D543846CC300D543846D4300D543846DC300D543846E43090
:201600000D543846EC300D543846F4300D543846FC300D54149809181098403800D05DE75F
:201620000596069407930B928020014902E0C046000020201090089880000E900A180F920B
:201640000846E4300D900846C4300C900C46A4340E4684360B4664330A4644320846243025
:201660000D710D730D750D772427CD5505720574057644200D5415721574157664200D5449
:201680001D721D741D7684200D54357235743576A4200D54257225742576C4200D540C98BE
:2016A000057205740576E4200D540D98057205740576129880000D54119880000D544523CD
:2016C00098000D54472290000D54492080000D544B2080000D544D2080000D544F208000E4
:2016E0000D54512080000D54532080000D54552080000D54572080000D54592080000D54DB
:201700005B2080000D545D2080000D545F2080000D540E980D540F9805720574057669200D
:2017200080000D546B2080000D546D2080000D546F2080000D54712080000D5473208000F9
:201740000D54752080000D54772080000D54792080000D547B2080000D547D2080000D54C6
:201760007F2080000D54149809181098403800D060E7089280200D93FC4B139912908631BF
:201780001091581811901846E5300F901846C5300E901E46A5361C468534194665311A46E5
:2017A0004532184625305D715D735D755D77099FDD550572057405760D981D541572157450
:2017C000157665201D540D720D740D76139904981D5425722574257603981D543572357425
:2017E0003576C5201D540E9805720574057602981D540F98057205740576084606301D54C5
:2018000008460E301D54084616301D5408461E301D54084626301D5408462E301D54084639
:2018200036301D5408463E301D54084646301D5408464E301D54084656301D5408465E3011
:201840001D54084666301D5408466E301D54084676301D5408467E301D5410981D541198D1
:201860000572057405760846A6301D540846AE301D540846B6301D540846BE301D5408462B
:20188000C6301D540846CE301D540846D6301D540846DE301D540846E6301D540846EE3051
:2018A0001D540846F6301D540846FE301D5414981B181298403800D060E78020AB4E129092
:2018C000069840001090311811913046E6300F903046C6300E903146A63137468637344668
:2018E00066343246463230462630B571B573B575B5772623F5540572057405764620355402
:2019000015721574157666203554257225742576862035543D723D743D76A62035540D7242
:201920000D740D761399C62035540E98057205740576E62035540F980572057405760B9833
:20194000400035548722500035548B20400035548F204000355493204000355497204000DD
:2019600035549B20400035549F2040003554079840003554A72358003554AB20400035542B
:20198000AF2040003554B32040003554B72040003554BB2040003554BF204000355410987F
:2019A00035541198057205740576D32040003554D72040003554DB2040003554DF2040000B
:2019C0003554059840003554E72460003554EB2040003554EF2040003554F320400035549C
:2019E000F72040003554FB204000355448003554149836181298403800D060E78027D54E55
:201A000009920493039412970846883010903218119210310E9170180F903046E7300D9090
:201A20003046C7300C903746A73733468733324667323146473130462730F571F573F5750A
:201A4000F5770A9C3555057205740576089835540D720D740D761399672035541572157407
:201A60001576099AB5541D721D741D76049BF5543D723D743D76129FC72035540C98057245
:201A800005740576039C35550D980572057405760846083035540E9835540F98057208466F
:201AA00020303554084628303554084630303554084638303554084640303554084648309B
:201AC00035540846503035540846583035540846603035540846683035540846703035547A
:201AE0000846783035540846803035541098355411980572057405760846A830355408469E
:201B0000B03035540846B83035540846C03035540846C83035540846D03035540846D830DA
:201B200035540846E03035540846E83035540846F03035540846F83035548748355414984C
:201B40003618403F00D05EE700F0DEFC0198007829462038C0B20D90C8B2149000200F9015
:201B6000024610950C910F460CE0C046000020201098401C10900C9F0E9A521C0C2A01D1E7
:201B8000FFF78FFA0C200D994843744908180E92805C1099C9B212910F9A1192109949B259
:201BA000012213910029164600D40F9EF9B23F2900D80F9A43B21643002B0FD4002E1DD14C
:201BC000C9080722511ABA4301239340C9B2129AD200604CA218545C9C430EE0002E0DD1C4
:201BE000C9080722511ABA4301239340C9B2129AD200584CA218545C1C4354547E1CF1B241
:201C0000149A8A1A0C2AB3D001230024139A002A1A4600D422463F2900D823461A434306AF
:201C20000FD4002A1DD1C9080722511AB24301239340C9B2129AD200464CA218545C9C4384
:201C40000EE0002A0DD1C9080722511AB24301239340C9B2129AD2003E4CA218545C1C43F1
:201C60005454BE1CF1B2149A8A1A0C2A00D17FE701230024139A002A1A4600D422463F295D
:201C800000D823461A4383060FD4002A1DD1C9080722511AB24301239340C9B2129AD200D8
:201CA0002C4CA218545C9C430EE0002A0DD1C9080722511AB24301239340C9B2129AD20023
:201CC000244CA218545C1C435454FE1CF1B2149A8A1A0C2A00D14BE701230024139A002ABC
:201CE0001A4600D422463F2900D823461A43C3060FD4002A1DD1C9080722511AB243012300
:201D00009340C9B2129AD200124CA218545C9C430EE0002A0DD1C9080722511AB2430123DC
:201D20009340C9B2129AD2000A4CA218545C1C4354543F1DF9B2149A891A0C29119A00D107
:201D400016E7032111430001121D072900D224E712E7C04600002020FF010000203600003C
:201D6000F0B591B0109103A90DC1002B00D16EE2169F0598411E079179080291801E01908A
:201D8000002106910F9707E0002006900899491C0598814200D15AE2C8B20A460799C9B2F0
:201DA0008142089201D1012132E00198801AC1B2AB224A43520A03235343C01A401CC2B2FE
:201DC000032A00D10020022901D201210EE00899C943059BC9180C1A00230121E4B27D2506
:201DE000ED006943DB1CDDB2A542F8D1032A0FD0002201231343DCB2C3B29C4206D064242D
:201E00006143921CD4B29C42F3D101E00A204143049800F0F3FF0A2100F0F0FF09910698F9
:201E200000280CD107980899884205DD0998002800D10CE101200690002F03D1A7E7089941
:201E4000002FA4D0084602994843039940180C9010200999014309910022109B07E00C98D3
:201E6000401C0C90109B0A9A521CBA428ED00C2F0A9203D009980001F74903E00C20099916
:201E80004843F4490818801804780C98C0B20E9000200B9001460D910C9840B2012700280C
:201EA0003E4600D40B9ED9B23F2900D80B9F62B23E43002A10D4002E0F9F1ED1C908072244
:201EC000511A9A4301259540C9B20E9AD200E34EB218565CAE430FE0002E0F9F0DD1C908B2
:201EE0000722511A9A4301259540C9B20E9AD200DA4EB218565C2E435654591CCEB2109A23
:201F0000B21ABA42ABD00125002200282F4600D417463F2E00D815462F4362060FD4002FDC
:201F20001DD1F2080725AA1A8D430121A940D2B20E9DED00C94E7519AE5C8E430EE0002F35
:201F40000DD1F2080725AA1A8D430121A940D2B20E9DED00C14E7519AE5C0E43AE54991C13
:201F6000CEB2109AB21A0F9FBA4200D177E70125002200282F4600D417463F2E00D81546DC
:201F80002F43A2060FD4002F1DD1F2080725AA1A8D430121A940D2B20E9DED00AF4E7519BB
:201FA000AE5C8E430EE0002F0DD1F2080725AA1A8D430121A940D2B20E9DED00A74E7519E7
:201FC000AE5C0E43AE54D91CCEB2109AB21A0F9FBA4200D143E7012500220028284600D462
:201FE00010463F2E00D815462843E2060FD400281DD1F0080722101A8A4301219140C0B222
:202000000E9AD200954DAA18155C8D430EE000280DD1F0080722101A8A4301219140C0B2F0
:202020000E9AD2008D4DAA18155C0D4315541B1DD8B21099401AB8420D9900D10FE7032011
:2020400008432401091D072800D224E70BE7002F00D1F9E0084602994843039940180C900F
:202060000021109A08E00C98401C0C90109A0A99491CB94200D187E60C2F764800D076489F
:202080000A91435C0C98C0B20E9000200B9001460D910C9840B201240028264600D40B9EE6
:2020A000D1B23F2900D80B9C5DB22643002D0FD4002E1DD1C9080724611A94430125A540B9
:2020C000C9B20E9CE400654E3419665CAE430EE0002E0DD1C9080724611A94430125A540F1
:2020E000C9B20E9CE4005D4E3419665C2E436654511CCEB2109C341BBC42B4D0012700253B
:2021000000283C4600D42C463F2E00D82F463C435D0610D4002C0F9F1ED1F40807252C1B17
:202120008D430121A940E4B20E9DED004B4E75192E5D8E430FE0002C0F9F0DD1F408072544
:202140002C1B8D430121A940E4B20E9DED00434E75192E5D0E432E55911CCEB2109C341B89
:20216000BC4200D17FE70127002500283C4600D42C463F2E00D82F463C439D0610D4002C01
:202180000F9F1ED1F40807252C1B8D430121A940E4B20E9DED00314E75192E5D8E430FE0D2
:2021A000002C0F9F0DD1F40807252C1B8D430121A940E4B20E9DED00284E75192E5D0E430F
:2021C0002E55D11CCEB2109C341BBC4200D14AE7012400250028204600D428463F2E00D8B5
:2021E0002C462043DC060FD400281DD1F0080724201A8C430121A140C0B20E9CE400174D9C
:202200002C19255C8D430EE000280DD1F0080724201A8C430121A140C0B20E9CE4000F4DA9
:202220002C19255C0D432554121DD0B21099401AB8420D9900D116E7032008431B01091D3D
:20224000072800D224E712E7002006909FE511B0F0BDC046203600003030000000002020D5
:20226000F0B585B0A34EA44AA44F0120440604900105A34D10681F231B0698431060032074
:2022800042040020039100F085FE9948076042273068204200D083E0284600F0B5FE30684A
:2022A00020427DD1284600F0AFFE3068204277D1284600F0A9FE3068204271D1284600F082
:2022C000A3FE306820426BD1284600F09DFE3068204265D1284600F097FE306820425FD1E1
:2022E000284600F091FE3068204259D1284600F08BFE3068204253D1284600F085FE30684F
:2023000020424DD1284600F07FFE3068204247D1284600F079FE3068204241D1284600F011
:2023200073FE306820423BD1284600F06DFE3068204235D1284600F067FE306820422FD1A0
:20234000284600F061FE3068204229D1284600F05BFE3068204223D1284600F055FE3068DE
:2023600020421DD1284600F04FFE3068204217D1284600F049FE3068204211D1284600F0A1
:2023800043FE306820420BD1284600F03DFE3068204205D1284600F037FE163F00D077E7A7
:2023A0005548806902900498020400200190039900F0F0FD4E485149016042273068204245
:2023C00000D083E0284600F01FFE306820427DD1284600F019FE3068204277D1284600F0F2
:2023E00013FE3068204271D1284600F00DFE306820426BD1284600F007FE3068204265D15E
:20240000284600F001FE306820425FD1284600F0FBFD3068204259D1284600F0F5FD3068D3
:20242000204253D1284600F0EFFD306820424DD1284600F0E9FD3068204247D1284600F000
:20244000E3FD3068204241D1284600F0DDFD306820423BD1284600F0D7FD3068204235D120
:20246000284600F0D1FD306820422FD1284600F0CBFD3068204229D1284600F0C5FD306864
:20248000204223D1284600F0BFFD306820421DD1284600F0B9FD3068204217D1284600F090
:2024A000B3FD3068204211D1284600F0ADFD306820420BD1284600F0A7FD3068204205D1E0
:2024C000284600F0A1FD163F00D077E70A488169173502984543284600F090FC094940183F
:2024E0000F2801D301980490049805B0F0BDC0462C030B4004020B4038010B400100000E42
:20250000D103000043F6FFFFF0B584B00121C8077C4C7D4E0B0700257C4A0192CA03039261
:2025200007E0009D6D1C0199491C0191082D00D1E6E0226133603246103A106013603360E3
:20254000306013603360106013603360106013603360306013603360042D314600D3114691
:20256000086013603360A907314600D511460860136033600095E907314600D011460860A1
:202580001360039921602161336030601360336030601360336030601360336030601360D1
:2025A00033603060136033603060136033603060136033603060136021602161336030609D
:2025C0001360336030601360336030601360336010601360336030601360336030601360BA
:2025E0003360306013603360306013600A4621608027019D07E008601360424C039A22602A
:202600001035BF1E8DD0029700216956226033603246103A0029344600DA14462060136021
:2026200033604C06344600D514462060136033608C06344600D51446206013603360CC06F3
:20264000344600D514462060136033600C07344600D514462060136033604C07344600D567
:2026600014462060136033608C07344600D51446206013603360C907314600D011460860E2
:202680001360204C039F276008216956276033600029344600DA14462060136033604C0681
:2026A000344600D514462060136033608C06344600D51446206013603360CC06344600D509
:2026C00014462060136033600C07344600D514462060136033604C07344600D5144620605C
:2026E000136033608C07344600D51446206013603360C9073146029F00D17CE711467AE73E
:2027000004B0F0BD90320A40A0120A4000002020F0B581B06D49884200D308466949502374
:2027200043430024009405E0641D7D20C000844200D1C5E00A6864481618009F02E0281A4D
:2027400098421ED20868904200D901273D06154600D03546281A984213D20868904200D967
:2027600001273D06154600D03546281A984208D20868904200D901273D061546DFD0354647
:20278000DDE70D6850482E18002702E0101A98421ED20868A84200D901273A062A4600D04A
:2027A0003246101A984213D20868A84200D901273A062A4600D03246101A984208D2086817
:2027C000A84200D901273A062A46DFD03246DDE70D683D482E18002702E0101A98421ED236
:2027E0000868A84200D901273A062A4600D03246101A984213D20868A84200D901273A0602
:202800002A4600D03246101A984208D20868A84200D901273A062A46DFD03246DDE70D68B7
:2028200029482E18002702E0101A98421ED20868A84200D901273A062A4600D03246101A67
:20284000984213D20868A84200D901273A062A4600D03246101A984208D20868A84200D955
:2028600001273A062A46DFD03246DDE70D6816482E18002703E0101A984200D354E70868F0
:20288000A84200D901273A062A4600D03246101A984200D348E70868A84200D901273A06B4
:2028A0002A4600D03246101A984200D33CE70868A84200D901273A062A46DCD03246DAE776
:2028C00001B0F0BD18E000E0FFFFFF0033330300F0B584B03049314A0125AC0316682B020F
:2028E00003939E4316600E68264205D10E68264202D10E682642F6D06C02467E9769AF43BE
:202900002E40BD1995612025455DD6690327BE433D407519D561224D2E6807273740052616
:202920002E60466A33681362736853622F60C3695B065B0CD5697F263602B543EB18D361EC
:20294000E8C8009707680197476802971B071B0B2D03ADB2ED1833071B0D007A009E354313
:202960001D43019B1D43029B1D43054390690D4B03400D482840C01890611068039B18432B
:2029800010600868204205D10868204202D108682042F6D004B0F0BD04020B4008010B40DC
:2029A000001340408D00F0FF72FF0F00F0B581B0234B244E01277C02234800210160321FEE
:2029C00010680F21090288430019009210603046083801680322D2430A4002603068B843C6
:2029E00030603068184030601848FFF771FFFFF737FC00280BD0009A10681021014320200E
:202A000081431160002000F0D7F901B0F0BD104D03E0FFF725FC0028EDD1306808490840D5
:202A20003060306839020143316028682042F0D128682042EDD128682042F6D0E9E7C0466D
:202A4000FFFEFFFF08010B4008030B40943A000004020B40F0B585B0054600210A461446C2
:202A60006B5C521C491C002BF9D12348491E89B20391002938D0A4B2661E0321304600F091
:202A8000BDF9481C00270328394600D0014602910190022E184E14D30298201A0490002704
:202AA000EC19E95D304600F039FA6178304600F035FAA178304600F031FAFF1C0498B84269
:202AC000EED1019803283046029E0DD0EC19217800F024FA0848012E06D0617800F01EFA9E
:202AE0000548A41CB61EF2D10A2100F017FA0398401C05B0F0BDC04600801040002A49D094
:202B000084468B071CD1830722D1102A08D370B4103A78C978C0103AFBD270BC103238D066
:202B2000042A2CD3082A05D30C2A01D308C908C008C908C008C908C092072AD0920F22E053
:202B40000B780370491C401C521E22D08B07F7D1C30714D18307D8D0121F12D308C90380B7
:202B60001B0C4380001D121FF8D20AE008C903701B0A43701B0A83701B0AC370001D121F8F
:202B8000F4D2121D05D00B780370491C401C521EF9D160467047FEE710B51B491B4C204642
:202BA00000F012FA1A49204600F0E2F8194801680322D203914301600169174A0A40153231
:202BC000026141692D220A4312218A434261426801210A4043688B439A18426002684B040D
:202BE00013430360C26870231343C360C2680223134305229343C3600268042313430360D7
:202C000002680A43026010BDE93A000000801040D83A0000009110400000FFFFF8B5451CDC
:202C200000780023082B32D02F78C2070CD16A780F241440E41C122C0BD102242E57F4B2A3
:202C4000002E08D4EE1C0EE06D1C4A1C0F7011461AE0AE1C08E02E1DED7800957F252C40AC
:202C6000009DED012C1912343D0112095219094DAA420ED0D243002C05D08D5C4F1C0D7073
:202C8000641E3946F7E7354640085B1CCAE72846C5E7F8BDFF0F000082B000F089F9FDF7F5
:202CA0000FFA1548FFF7D6FE164E174D01208102124800F0A3F9002738463946104AFEF71F
:202CC000E7F91024384621463246FEF7E1F92A680C200090302006232146FFF741F8FFF761
:202CE00013FC2868401C28606424204600F0E2F82046FFF70DFDD9E7BC3A0000000020203D
:202D0000CB3A0000E23A0000040420208446830706D0002A29D001700130013A8307F8D1CD
:202D2000042A1CD30906090E0B0219430B041943082A10D30B00102A09D370B40F24161BBE
:202D400022400C000D003AC0103EFCD870BC082A01D30AC0083A042A01D302C0043A002A72
:202D600003D0013A8154013AFCD260467047704770B511221302C218C4580125AC43C450C7
:202D80000C888D7825438C882C43C558084E2E40084D25407419C4508879CB790343087A66
:202DA000184351687E23994318400818506070BDE798FDFF1867000010B50E490E4A01239B
:202DC0005C0590600868204205D10868204202D108682042F6D010681B04034313600868FD
:202DE000C00605D40868C00602D40868C006F6D510BDC04604020B4004010B401CB50A00D8
:202E000017D000230124E407A04200D20400944201D95200FBE790425B41904200D3801A4F
:202E2000914201D25208F6E719000200080011001CBD01000020FFF79AFF1CBD0A4882212A
:202E400081640A49C1648121016741670160C160C1650920000706490860086361204002A6
:202E600004490860086370470C80424082000400A0120A40A0320A4070B50A480A4C84423C
:202E80000CD00A4D0A4EB54208D02A686968501C12789200A25890470835F4E700BF00BF86
:202EA00070BDC046FC3A0000F03A00000C3B00001C3B000000280DD009490A88521C93B245
:202EC0000A80834205D101204002064A106100200880704701204002024908607047C04677
:202EE00000042020A0320A4080B5074807494160074A5160074B5960074901601160196055
:202F0000102000F081F880BD00080A40030000B100280A4000881040010000260A4A801878
:202F20000268120605D50268120602D502681206F6D481610168C90705D00168C90702D095
:202F40000168C907F6D1704708110000084880F3088800BF00BF00F068F8002801D0FFF791
:202F60008BFF0020FFF798FE012000F057F8C0460040202005480421016005494160002152
:202F80008160016805220A430260704710E000E0FFFFFF000843104304490A683F231B04AF
:202FA0009A431840101808607047C04638010B4080B5FFF799FFFFF741FFFFF7F7FCFFF733
:202FC000EBFDFFF7D7FF80BD10B50122120383180C789C604978815010BD80B50B460321DF
:202FE0004258C11D184600F015F880BD80B50A4603214158104600F001F880BD0A46002192
:2030000080B5FFF783FE80BD811E091F00BFFCD27047000080B5FFF771FD80BD00F001F8FD
:10302000FEE700BF704791E770470120704700003E
:20303000000000000000000000000000000000000000000000001FCC000C00000000000089
:2030500000000800300060000800300060000000022003FC1E20022003FC1E200220000050
:2030700000000E1811043FFF10840C78000000000F0010840F3800C0077818840078000072
:2030900000780F8410C411240E9800E4008400080800680070000000000000000000000016
:2030B00000000000000007E01818200440020000000040022004181807E000000000000006
:2030D0000240024001800FF001800240024000000080008000800FF80080008000800000D0
:2030F0000001000D000E000000000000000000000000008000800080008000800080008024
:203110000000000C000C00000000000000000000000000060018006001800600180020004A
:20313000000007F0080810041004080807F000000000080408041FFC00040004000000000E
:2031500000000E0C10141024104411840E0C000000000C1810041104110412880C70000072
:20317000000000E00320042408241FFC0024000000001F981084110411041088107000001C
:20319000000007F008881104110418880070000000001C00100010FC13001C0010000000E7
:2031B00000000E3811441084108411440E38000000000700088C10441044088807F00000D7
:2031D000000000000000030C030C00000000000000000000000101060000000000000000B9
:2031F0000000008001400220041008081004000002200220022002200220022002200000B6
:203210000000100408080410022001400080000000000E001200100C106C10800F0000002C
:2032300003E00C1813E4142417C4082807D000000004003C03C41C40074000E4001C0004B8
:2032500010041FFC1104110411040E880070000003E00C1810041004100410081C10000063
:2032700010041FFC100410041004080807F0000010041FFC1104110417C410040818000064
:2032900010041FFC1104110017C010000800000003E00C181004100410441C780040000083
:2032B00010041FFC10840080008010841FFC10040000100410041FFC10041004000000000D
:2032D00000030001100110011FFE10001000000010041FFC110403801464181C10040000F4
:2032F00010041FFC1004000400040004000C000010041FFC1F0000FC1F001FFC10040000CB
:2033100010041FFC0C04030000E010181FFC100007F00808100410041004080807F00000DE
:2033300010041FFC10841080108010800F00000007F0081810241024101C080A07F2000045
:2033500010041FFC1104110011C011300E0C000400000E1C11041084108410441C380000C9
:203370001800100010041FFC100410001800000010001FF810040004000410041FF810002C
:2033900010001E0011E0001C007013801C0010001FC0103C00E01F0000E0103C1FC000007E
:2033B0001004180C163401C001C01634180C100410001C00130400FC13041C0010000000F5
:2033D0000804101C1064108413041C04101800000000000000007FFE4002400240020000FB
:2033F000000030000C0003800060001C0003000000004002400240027FFE0000000000003C
:20341000000000002000400040004000200000000001000100010001000100010001000194
:203430000000400040002000000000000000000000000098012401440144014400FC000450
:2034500010001FFC0088010401040088007000000000007000880104010401040088000018
:203470000000007000880104010411081FFC0004000000F8014401440144014400C800002E
:203490000000010401040FFC1104110411001800000000D601290129012901C9010600008F
:2034B00010041FFC008401000100010400FC000400000104190419FC000400040000000003
:2034D0000000000300010101190119FE0000000010041FFC0024004001B4010C010400004B
:2034F0000000100410041FFC0004000400000000010401FC0104010001FC0104010000FC6A
:20351000010401FC008401000100010400FC0004000000F8010401040104010400F800000A
:20353000010101FF00850104010400880070000000000070008801040104010501FF0001E9
:203550000104010401FC00840104010001800000000000CC01240124012401240198000050
:2035700000000100010007F80104010400000000010001F8000400040004010801FC000420
:20359000010001800170000C001001600180010001F0010C003001C00030010C01F001000B
:2035B00000000104018C00740170018C01040000010101810171000E0018016001800100F3
:2035D00000000184010C013401440184010C0000000000000000000001003EFC400240027E
:2035F0000000000000000000FFFF0000000000000000400240023EFC0100000000000000FE
:2036100000006000800080004000400020002000000000000000000000000000000000007A
:203630003F4000000000000000003000400030004000000009000BC03D000BC03D000900F9
:2036500018C024407FE0224031800000180024C01B000D803240018003801C4027401C8033
:20367000074000401000600000000000000000000000000000001F80204040200000402084
:2036900020401F8000000000090006001F80060009000000040004003F800400040000008F
:2036B000001000600000000000000000040004000400040004000000000000400000000036
:2036D00000000000002001C006003800400000001F802040204020401F80000000001040CD
:2036F0003FC000400000000018C02140224024401840000010802040244024401B800000D1
:2037100002000D0011003FC0014000003C80244024402440238000001F80244024403440D3
:20373000038000003000200027C03800200000001B802440244024401B8000001C0022C007
:20375000224022401F8000000000000008400000000000000000000004600000000000004A
:20377000000004000A0011002080404009000900090009000900000000004040208011009C
:203790000A0004001800200023402400180000001F802040274029401F400000004007C0FF
:2037B00039000F0001C0004020403FC0244024401B8000001F80204020402040308000007F
:2037D00020403FC0204020401F80000020403FC024402E4030C0000020403FC024402E0009
:2037F000300000000F001080204022403380020020403FC0040004003FC0204020402040ED
:203810003FC02040204000000060202020203FC02000200020403FC024400B0030C020409C
:2038300020403FC020400040004000C03FC03C0003C03C003FC0000020403FC00C40230072
:203850003FC020001F802040204020401F80000020403FC024402400180000001F802140DC
:20387000214020E01FA0000020403FC02440260019C0004018C02440244022403180000063
:20389000300020403FC020403000000020003F80004000403F80200020003E0001C0070095
:2038B00038002000380007C03C0007C038000000204039C0060039C0204000002000384016
:2038D00007C0384020000000304021C02640384020C00000000000007FE04020402000004B
:2038F000000070000C000380004000000000402040207FE0000000000000200040002000DA
:20391000000000000010001000100010001000100000000040000000000000000000028075
:203930000540054003C0004020003FC004400440038000000000038004400440064000006F
:2039500000000380044024403FC00040000003800540054003400000000004401FC0244016
:2039700024402000000002E0055005500650042020403FC00440040003C0004000000440BF
:2039900027C000400000000000100010041027E00000000020403FC00140070004C0044006
:2039B000204020403FC000400040000007C0040007C0040003C00000044007C0044004000C
:2039D00003C00040000003800440044003800000041007F00450044003800000000003809D
:2039F0000440045007F00010044007C00240040004000000000006400540054004C000002F
:203A1000000004001F80044000400000040007800040044007C000400400070004C0018009
:203A300006000400060001C0070001C006000000044006C0010006C0044000000410071097
:203A500004E00180060004000000044005C00640044000000000000004007BE04020000095
:203A7000000000000000FFF000000000000040207BE0040000000000400080004000200068
:203A9000200040000100000000000000000000004000000000000000000000000200000073
:203AB00004000000010000002C00C4414F4C454420496E6974204F4B210D0048656C6C6F0C
:203AD00020576F726C64210000001800000000300000436F756E743A0008000000000000FA
:203AF0001D2C0000DB2F0000ED2F000002000000020400000001000000FFF000FC3A000019
:103B100000002020043B00000404202000000000DE
:00000001FF
