:2000000000802020770100007F0100007F01000000000000000000000000000000000000A8
:200020000000000000000000000000007F01000000000000000000007F0100007F01000040
:200040007F0100007F0100007F0100007F0100007F0100007F0100007F0100007F010000A0
:20006000000000007F0100007F01000000000000000000007F0100007F0100007F01000000
:200080007F0100007F0100007F0100007F0100007F0100007F010000000000000000000060
:2000A0007F0100007F01000000000000000000007F010000000000007F0100007F010000C0
:2000C0000D48002101600D48011F0A680323DB4313400B6041680122914341604168120262
:2000E00091434160016830229143016001680F22914301607047C04608030B4004010B4069
:2001000080B5064806494160064A5160064901601160102000F022F880BDC04600080A407B
:20012000030000B100280A4001000026064880F3088800BF00BF00F020F8002000F013F880
:20014000012000F013F8C0460080202080B5FFF7D7FF00F015F8FFF7B3FF80BD811E091F13
:2001600000BFFCD27047FFF7F1FFFEE700F001F8FEE700BF7047D9E7704701207047FEE7F8
:080180007047000000000000C0
:00000001FF
